{
  "contractName": "DoodleNoodles",
  "abi": [
    {
      "inputs": [],
      "stateMutability": "nonpayable",
      "type": "constructor"
    },
    {
      "anonymous": false,
      "inputs": [
        {
          "indexed": true,
          "internalType": "address",
          "name": "owner",
          "type": "address"
        },
        {
          "indexed": true,
          "internalType": "address",
          "name": "approved",
          "type": "address"
        },
        {
          "indexed": true,
          "internalType": "uint256",
          "name": "tokenId",
          "type": "uint256"
        }
      ],
      "name": "Approval",
      "type": "event"
    },
    {
      "anonymous": false,
      "inputs": [
        {
          "indexed": true,
          "internalType": "address",
          "name": "owner",
          "type": "address"
        },
        {
          "indexed": true,
          "internalType": "address",
          "name": "operator",
          "type": "address"
        },
        {
          "indexed": false,
          "internalType": "bool",
          "name": "approved",
          "type": "bool"
        }
      ],
      "name": "ApprovalForAll",
      "type": "event"
    },
    {
      "anonymous": false,
      "inputs": [
        {
          "indexed": true,
          "internalType": "address",
          "name": "previousOwner",
          "type": "address"
        },
        {
          "indexed": true,
          "internalType": "address",
          "name": "newOwner",
          "type": "address"
        }
      ],
      "name": "OwnershipTransferred",
      "type": "event"
    },
    {
      "anonymous": false,
      "inputs": [
        {
          "indexed": true,
          "internalType": "address",
          "name": "from",
          "type": "address"
        },
        {
          "indexed": true,
          "internalType": "address",
          "name": "to",
          "type": "address"
        },
        {
          "indexed": true,
          "internalType": "uint256",
          "name": "tokenId",
          "type": "uint256"
        }
      ],
      "name": "Transfer",
      "type": "event"
    },
    {
      "stateMutability": "payable",
      "type": "fallback",
      "payable": true
    },
    {
      "inputs": [],
      "name": "goldenNoodles",
      "outputs": [
        {
          "internalType": "uint256",
          "name": "",
          "type": "uint256"
        }
      ],
      "stateMutability": "view",
      "type": "function",
      "constant": true
    },
    {
      "inputs": [
        {
          "internalType": "address",
          "name": "_add",
          "type": "address"
        },
        {
          "internalType": "bytes32",
          "name": "_r",
          "type": "bytes32"
        },
        {
          "internalType": "bytes32",
          "name": "_s",
          "type": "bytes32"
        },
        {
          "internalType": "uint8",
          "name": "_v",
          "type": "uint8"
        }
      ],
      "name": "isValidAccessMessage",
      "outputs": [
        {
          "internalType": "bool",
          "name": "",
          "type": "bool"
        }
      ],
      "stateMutability": "view",
      "type": "function",
      "constant": true
    },
    {
      "inputs": [],
      "name": "maxPerTx",
      "outputs": [
        {
          "internalType": "uint256",
          "name": "",
          "type": "uint256"
        }
      ],
      "stateMutability": "view",
      "type": "function",
      "constant": true
    },
    {
      "inputs": [],
      "name": "maxPerWallet",
      "outputs": [
        {
          "internalType": "uint256",
          "name": "",
          "type": "uint256"
        }
      ],
      "stateMutability": "view",
      "type": "function",
      "constant": true
    },
    {
      "inputs": [],
      "name": "mintActive",
      "outputs": [
        {
          "internalType": "bool",
          "name": "",
          "type": "bool"
        }
      ],
      "stateMutability": "view",
      "type": "function",
      "constant": true
    },
    {
      "inputs": [],
      "name": "numberMinted",
      "outputs": [
        {
          "internalType": "uint256",
          "name": "",
          "type": "uint256"
        }
      ],
      "stateMutability": "view",
      "type": "function",
      "constant": true
    },
    {
      "inputs": [],
      "name": "owner",
      "outputs": [
        {
          "internalType": "address",
          "name": "",
          "type": "address"
        }
      ],
      "stateMutability": "view",
      "type": "function",
      "constant": true
    },
    {
      "inputs": [],
      "name": "owner1",
      "outputs": [
        {
          "internalType": "address",
          "name": "",
          "type": "address"
        }
      ],
      "stateMutability": "view",
      "type": "function",
      "constant": true
    },
    {
      "inputs": [],
      "name": "presaleActive",
      "outputs": [
        {
          "internalType": "bool",
          "name": "",
          "type": "bool"
        }
      ],
      "stateMutability": "view",
      "type": "function",
      "constant": true
    },
    {
      "inputs": [],
      "name": "price",
      "outputs": [
        {
          "internalType": "uint256",
          "name": "",
          "type": "uint256"
        }
      ],
      "stateMutability": "view",
      "type": "function",
      "constant": true
    },
    {
      "inputs": [],
      "name": "provenanceHash",
      "outputs": [
        {
          "internalType": "string",
          "name": "",
          "type": "string"
        }
      ],
      "stateMutability": "view",
      "type": "function",
      "constant": true
    },
    {
      "inputs": [],
      "name": "renounceOwnership",
      "outputs": [],
      "stateMutability": "nonpayable",
      "type": "function"
    },
    {
      "inputs": [],
      "name": "reservedNoodles",
      "outputs": [
        {
          "internalType": "uint256",
          "name": "",
          "type": "uint256"
        }
      ],
      "stateMutability": "view",
      "type": "function",
      "constant": true
    },
    {
      "inputs": [],
      "name": "revealed",
      "outputs": [
        {
          "internalType": "bool",
          "name": "",
          "type": "bool"
        }
      ],
      "stateMutability": "view",
      "type": "function",
      "constant": true
    },
    {
      "inputs": [
        {
          "internalType": "address",
          "name": "newAddress",
          "type": "address"
        }
      ],
      "name": "setSignerAddress",
      "outputs": [],
      "stateMutability": "nonpayable",
      "type": "function"
    },
    {
      "inputs": [],
      "name": "signerAddress",
      "outputs": [
        {
          "internalType": "address",
          "name": "",
          "type": "address"
        }
      ],
      "stateMutability": "view",
      "type": "function",
      "constant": true
    },
    {
      "inputs": [],
      "name": "startingIndex",
      "outputs": [
        {
          "internalType": "uint256",
          "name": "",
          "type": "uint256"
        }
      ],
      "stateMutability": "view",
      "type": "function",
      "constant": true
    },
    {
      "inputs": [],
      "name": "startingIndexBlock",
      "outputs": [
        {
          "internalType": "uint256",
          "name": "",
          "type": "uint256"
        }
      ],
      "stateMutability": "view",
      "type": "function",
      "constant": true
    },
    {
      "inputs": [],
      "name": "totalNoodles",
      "outputs": [
        {
          "internalType": "uint256",
          "name": "",
          "type": "uint256"
        }
      ],
      "stateMutability": "view",
      "type": "function",
      "constant": true
    },
    {
      "inputs": [
        {
          "internalType": "address",
          "name": "newOwner",
          "type": "address"
        }
      ],
      "name": "transferOwnership",
      "outputs": [],
      "stateMutability": "nonpayable",
      "type": "function"
    },
    {
      "stateMutability": "payable",
      "type": "receive",
      "payable": true
    },
    {
      "inputs": [
        {
          "internalType": "bytes4",
          "name": "interfaceId",
          "type": "bytes4"
        }
      ],
      "name": "supportsInterface",
      "outputs": [
        {
          "internalType": "bool",
          "name": "",
          "type": "bool"
        }
      ],
      "stateMutability": "view",
      "type": "function",
      "constant": true
    },
    {
      "inputs": [],
      "name": "withdraw",
      "outputs": [],
      "stateMutability": "nonpayable",
      "type": "function"
    },
    {
      "inputs": [
        {
          "internalType": "address",
          "name": "_to",
          "type": "address"
        },
        {
          "internalType": "uint256",
          "name": "_qty",
          "type": "uint256"
        }
      ],
      "name": "giveAway",
      "outputs": [],
      "stateMutability": "nonpayable",
      "type": "function"
    },
    {
      "inputs": [
        {
          "internalType": "address",
          "name": "_to",
          "type": "address"
        },
        {
          "internalType": "uint256",
          "name": "_qty",
          "type": "uint256"
        }
      ],
      "name": "goldenNoodle",
      "outputs": [],
      "stateMutability": "nonpayable",
      "type": "function"
    },
    {
      "inputs": [
        {
          "internalType": "uint256",
          "name": "qty",
          "type": "uint256"
        }
      ],
      "name": "mintNoodle",
      "outputs": [],
      "stateMutability": "payable",
      "type": "function",
      "payable": true
    },
    {
      "inputs": [
        {
          "internalType": "uint256",
          "name": "qty",
          "type": "uint256"
        },
        {
          "internalType": "bytes32",
          "name": "_r",
          "type": "bytes32"
        },
        {
          "internalType": "bytes32",
          "name": "_s",
          "type": "bytes32"
        },
        {
          "internalType": "uint8",
          "name": "_v",
          "type": "uint8"
        }
      ],
      "name": "presaleMintNoodle",
      "outputs": [],
      "stateMutability": "payable",
      "type": "function",
      "payable": true
    },
    {
      "inputs": [
        {
          "internalType": "uint256",
          "name": "tokenId",
          "type": "uint256"
        }
      ],
      "name": "tokenURI",
      "outputs": [
        {
          "internalType": "string",
          "name": "",
          "type": "string"
        }
      ],
      "stateMutability": "view",
      "type": "function",
      "constant": true
    },
    {
      "inputs": [],
      "name": "reveal",
      "outputs": [],
      "stateMutability": "nonpayable",
      "type": "function"
    },
    {
      "inputs": [
        {
          "internalType": "uint256",
          "name": "maxWallet",
          "type": "uint256"
        }
      ],
      "name": "setMaxPerWallet",
      "outputs": [],
      "stateMutability": "nonpayable",
      "type": "function"
    },
    {
      "inputs": [
        {
          "internalType": "uint256",
          "name": "newMax",
          "type": "uint256"
        }
      ],
      "name": "setMaxPerTx",
      "outputs": [],
      "stateMutability": "nonpayable",
      "type": "function"
    },
    {
      "inputs": [
        {
          "internalType": "string",
          "name": "newURI",
          "type": "string"
        }
      ],
      "name": "setBaseURI",
      "outputs": [],
      "stateMutability": "nonpayable",
      "type": "function"
    },
    {
      "inputs": [],
      "name": "activateMint",
      "outputs": [],
      "stateMutability": "nonpayable",
      "type": "function"
    },
    {
      "inputs": [],
      "name": "activatePresale",
      "outputs": [],
      "stateMutability": "nonpayable",
      "type": "function"
    },
    {
      "inputs": [],
      "name": "deactivateMint",
      "outputs": [],
      "stateMutability": "nonpayable",
      "type": "function"
    },
    {
      "inputs": [],
      "name": "deactivatePresale",
      "outputs": [],
      "stateMutability": "nonpayable",
      "type": "function"
    },
    {
      "inputs": [
        {
          "internalType": "uint256",
          "name": "newPrice",
          "type": "uint256"
        }
      ],
      "name": "setPrice",
      "outputs": [],
      "stateMutability": "nonpayable",
      "type": "function"
    },
    {
      "inputs": [
        {
          "internalType": "uint256",
          "name": "numTokens",
          "type": "uint256"
        }
      ],
      "name": "setTotalTokens",
      "outputs": [],
      "stateMutability": "nonpayable",
      "type": "function"
    },
    {
      "inputs": [],
      "name": "totalSupply",
      "outputs": [
        {
          "internalType": "uint256",
          "name": "",
          "type": "uint256"
        }
      ],
      "stateMutability": "view",
      "type": "function",
      "constant": true
    },
    {
      "inputs": [
        {
          "internalType": "address",
          "name": "tokenAddress",
          "type": "address"
        }
      ],
      "name": "getBalance",
      "outputs": [
        {
          "internalType": "uint256",
          "name": "",
          "type": "uint256"
        }
      ],
      "stateMutability": "view",
      "type": "function",
      "constant": true
    },
    {
      "inputs": [
        {
          "internalType": "address",
          "name": "owner",
          "type": "address"
        }
      ],
      "name": "balanceOf",
      "outputs": [
        {
          "internalType": "uint256",
          "name": "",
          "type": "uint256"
        }
      ],
      "stateMutability": "view",
      "type": "function",
      "constant": true
    },
    {
      "inputs": [
        {
          "internalType": "uint256",
          "name": "tokenId",
          "type": "uint256"
        }
      ],
      "name": "ownerOf",
      "outputs": [
        {
          "internalType": "address",
          "name": "",
          "type": "address"
        }
      ],
      "stateMutability": "view",
      "type": "function",
      "constant": true
    },
    {
      "inputs": [
        {
          "internalType": "address",
          "name": "to",
          "type": "address"
        },
        {
          "internalType": "uint256",
          "name": "tokenId",
          "type": "uint256"
        }
      ],
      "name": "approve",
      "outputs": [],
      "stateMutability": "nonpayable",
      "type": "function"
    },
    {
      "inputs": [
        {
          "internalType": "uint256",
          "name": "tokenId",
          "type": "uint256"
        }
      ],
      "name": "getApproved",
      "outputs": [
        {
          "internalType": "address",
          "name": "",
          "type": "address"
        }
      ],
      "stateMutability": "view",
      "type": "function",
      "constant": true
    },
    {
      "inputs": [
        {
          "internalType": "address",
          "name": "operator",
          "type": "address"
        },
        {
          "internalType": "bool",
          "name": "approved",
          "type": "bool"
        }
      ],
      "name": "setApprovalForAll",
      "outputs": [],
      "stateMutability": "nonpayable",
      "type": "function"
    },
    {
      "inputs": [
        {
          "internalType": "address",
          "name": "owner",
          "type": "address"
        },
        {
          "internalType": "address",
          "name": "operator",
          "type": "address"
        }
      ],
      "name": "isApprovedForAll",
      "outputs": [
        {
          "internalType": "bool",
          "name": "",
          "type": "bool"
        }
      ],
      "stateMutability": "view",
      "type": "function",
      "constant": true
    },
    {
      "inputs": [
        {
          "internalType": "address",
          "name": "from",
          "type": "address"
        },
        {
          "internalType": "address",
          "name": "to",
          "type": "address"
        },
        {
          "internalType": "uint256",
          "name": "tokenId",
          "type": "uint256"
        }
      ],
      "name": "transferFrom",
      "outputs": [],
      "stateMutability": "nonpayable",
      "type": "function"
    },
    {
      "inputs": [
        {
          "internalType": "address",
          "name": "from",
          "type": "address"
        },
        {
          "internalType": "address",
          "name": "to",
          "type": "address"
        },
        {
          "internalType": "uint256",
          "name": "tokenId",
          "type": "uint256"
        }
      ],
      "name": "safeTransferFrom",
      "outputs": [],
      "stateMutability": "nonpayable",
      "type": "function"
    },
    {
      "inputs": [
        {
          "internalType": "address",
          "name": "from",
          "type": "address"
        },
        {
          "internalType": "address",
          "name": "to",
          "type": "address"
        },
        {
          "internalType": "uint256",
          "name": "tokenId",
          "type": "uint256"
        },
        {
          "internalType": "bytes",
          "name": "_data",
          "type": "bytes"
        }
      ],
      "name": "safeTransferFrom",
      "outputs": [],
      "stateMutability": "nonpayable",
      "type": "function"
    },
    {
      "inputs": [
        {
          "internalType": "address",
          "name": "_operator",
          "type": "address"
        },
        {
          "internalType": "address",
          "name": "_from",
          "type": "address"
        },
        {
          "internalType": "uint256",
          "name": "_tokenId",
          "type": "uint256"
        },
        {
          "internalType": "bytes",
          "name": "_data",
          "type": "bytes"
        }
      ],
      "name": "onERC721Received",
      "outputs": [
        {
          "internalType": "bytes4",
          "name": "",
          "type": "bytes4"
        }
      ],
      "stateMutability": "nonpayable",
      "type": "function"
    },
    {
      "inputs": [],
      "name": "name",
      "outputs": [
        {
          "internalType": "string",
          "name": "",
          "type": "string"
        }
      ],
      "stateMutability": "view",
      "type": "function",
      "constant": true
    },
    {
      "inputs": [],
      "name": "symbol",
      "outputs": [
        {
          "internalType": "string",
          "name": "",
          "type": "string"
        }
      ],
      "stateMutability": "view",
      "type": "function",
      "constant": true
    },
    {
      "inputs": [],
      "name": "contractURI",
      "outputs": [
        {
          "internalType": "string",
          "name": "",
          "type": "string"
        }
      ],
      "stateMutability": "view",
      "type": "function",
      "constant": true
    },
    {
      "inputs": [
        {
          "internalType": "string",
          "name": "hash",
          "type": "string"
        }
      ],
      "name": "setProvenanceHash",
      "outputs": [],
      "stateMutability": "nonpayable",
      "type": "function"
    },
    {
      "inputs": [],
      "name": "setStartingIndex",
      "outputs": [],
      "stateMutability": "nonpayable",
      "type": "function"
    },
    {
      "inputs": [],
      "name": "setStartingIndexBlock",
      "outputs": [],
      "stateMutability": "nonpayable",
      "type": "function"
    }
  ],
  "bytecode": "0x60806040526000805460ff60a01b19169055600280546001600160a01b031916735916cbaf66a7bfa2b0f2bf60c05cb16763f051f81790553480156200004457600080fd5b5062000059620000536200012c565b62000130565b6040805180820190915260178082527f446f6f646c65204e6f6f646c6573204f6666696369616c00000000000000000060209092019182526200009f9160039162000180565b50604080518082019091526005808252644e4f4f445360d81b6020909201918252620000ce9160049162000180565b506007805462ffffff191690556115b360095566d529ae9e8600006008556005600b819055600c8190556028600d55600e55600180546001600160a01b031916735916cbaf66a7bfa2b0f2bf60c05cb16763f051f817905562000263565b3390565b600080546001600160a01b038381166001600160a01b0319831681178455604051919092169283917f8be0079c531659141344cd1fd0a4f28419497f9722a3daafe3b4186f6b6457e09190a35050565b8280546200018e9062000226565b90600052602060002090601f016020900481019282620001b25760008555620001fd565b82601f10620001cd57805160ff1916838001178555620001fd565b82800160010185558215620001fd579182015b82811115620001fd578251825591602001919060010190620001e0565b506200020b9291506200020f565b5090565b5b808211156200020b576000815560010162000210565b6002810460018216806200023b57607f821691505b602082108114156200025d57634e487b7160e01b600052602260045260246000fd5b50919050565b61324580620002736000396000f3fe6080604052600436106103545760003560e01c80638da5cb5b116101c6578063c91c0462116100f7578063e8a3d48511610095578063eb1855631161006f578063eb185563146108b9578063f2fde38b146108d9578063f8b2cb4f146108f9578063f968adbe146109195761035b565b8063e8a3d4851461086f578063e985e9c514610884578063e9866550146108a45761035b565b8063d5dc3efd116100d1578063d5dc3efd14610810578063d829210a14610825578063e268e4d31461083a578063e36d64981461085a5761035b565b8063c91c0462146107c6578063ca800144146107db578063cb774d47146107fb5761035b565b8063b68e8c9111610164578063c1dd27dc1161013e578063c1dd27dc14610751578063c6ab67a314610771578063c6f6f21614610786578063c87b56dd146107a65761035b565b8063b68e8c9114610707578063b88d4fde1461071c578063bb01f6ad1461073c5761035b565b8063a035b1fe116101a0578063a035b1fe1461069d578063a22cb465146106b2578063a475b5dd146106d2578063b0b92263146106e75761035b565b80638da5cb5b1461065357806391b7f5ed1461066857806395d89b41146106885761035b565b80633ccfd60b116102a057806357153fb41161023e5780636ed3f50c116102185780636ed3f50c146105f457806370a0823114610609578063715018a614610629578063736889141461063e5761035b565b806357153fb4146105ac5780635b7633d0146105bf5780636352211e146105d45761035b565b806349a772b51161027a57806349a772b51461054d578063518302271461056257806353135ca01461057757806355f804b31461058c5761035b565b80633ccfd60b1461050357806342842e0e14610518578063453c2310146105385761035b565b806310ad132a1161030d57806323b872dd116102e757806323b872dd146104a457806325fd90f3146104c4578063290fd843146104d95780632e56f71e146104ee5761035b565b806310ad132a14610442578063150b7a021461045557806318160ddd146104825761035b565b806301ffc9a71461035d578063046dc1661461039357806306fdde03146103b3578063081812fc146103d5578063095ea7b31461040257806310969523146104225761035b565b3661035b57005b005b34801561036957600080fd5b5061037d610378366004612676565b61092e565b60405161038a919061296f565b60405180910390f35b34801561039f57600080fd5b5061035b6103ae36600461245a565b61099d565b3480156103bf57600080fd5b506103c8610a07565b60405161038a91906129ad565b3480156103e157600080fd5b506103f56103f0366004612734565b610a99565b60405161038a919061291e565b34801561040e57600080fd5b5061035b61041d36600461264d565b610adc565b34801561042e57600080fd5b5061035b61043d3660046126ae565b610b62565b61035b610450366004612734565b610bad565b34801561046157600080fd5b506104756104703660046124e8565b610e18565b60405161038a9190612998565b34801561048e57600080fd5b50610497610e29565b60405161038a91906130aa565b3480156104b057600080fd5b5061035b6104bf3660046124ad565b610e2f565b3480156104d057600080fd5b5061037d610e60565b3480156104e557600080fd5b5061035b610e69565b3480156104fa57600080fd5b5061035b610eb5565b34801561050f57600080fd5b5061035b610f00565b34801561052457600080fd5b5061035b6105333660046124ad565b610f72565b34801561054457600080fd5b50610497610f8d565b34801561055957600080fd5b50610497610f93565b34801561056e57600080fd5b5061037d610f99565b34801561058357600080fd5b5061037d610fa8565b34801561059857600080fd5b5061035b6105a73660046126ee565b610fb6565b61035b6105ba36600461274c565b611008565b3480156105cb57600080fd5b506103f5611287565b3480156105e057600080fd5b506103f56105ef366004612734565b611296565b34801561060057600080fd5b506104976112cb565b34801561061557600080fd5b5061049761062436600461245a565b6112d1565b34801561063557600080fd5b5061035b611315565b34801561064a57600080fd5b506103f5611360565b34801561065f57600080fd5b506103f561136f565b34801561067457600080fd5b5061035b610683366004612734565b61137e565b34801561069457600080fd5b506103c86113c2565b3480156106a957600080fd5b506104976113d1565b3480156106be57600080fd5b5061035b6106cd3660046125ce565b6113d7565b3480156106de57600080fd5b5061035b61146f565b3480156106f357600080fd5b5061035b610702366004612734565b6114c1565b34801561071357600080fd5b5061035b611505565b34801561072857600080fd5b5061035b610737366004612555565b611555565b34801561074857600080fd5b5061049761158d565b34801561075d57600080fd5b5061037d61076c366004612608565b611593565b34801561077d57600080fd5b506103c861169a565b34801561079257600080fd5b5061035b6107a1366004612734565b611728565b3480156107b257600080fd5b506103c86107c1366004612734565b61176c565b3480156107d257600080fd5b5061035b6117fd565b3480156107e757600080fd5b5061035b6107f636600461264d565b61184b565b34801561080757600080fd5b5061049761191a565b34801561081c57600080fd5b5061035b611920565b34801561083157600080fd5b50610497611985565b34801561084657600080fd5b5061035b610855366004612734565b61198b565b34801561086657600080fd5b506104976119cf565b34801561087b57600080fd5b506103c86119d5565b34801561089057600080fd5b5061037d61089f36600461247b565b6119fd565b3480156108b057600080fd5b5061035b611a2b565b3480156108c557600080fd5b5061035b6108d436600461264d565b611b0a565b3480156108e557600080fd5b5061035b6108f436600461245a565b611bc2565b34801561090557600080fd5b5061049761091436600461245a565b611c33565b34801561092557600080fd5b50610497611c4e565b60006001600160e01b031982166380ac58cd60e01b148061095f57506001600160e01b03198216635b5e139f60e01b145b8061097a57506001600160e01b031982166301ffc9a760e01b145b8061099557506001600160e01b03198216630a85bd0160e11b145b90505b919050565b6109a5611c54565b6001600160a01b03166109b661136f565b6001600160a01b0316146109e55760405162461bcd60e51b81526004016109dc90612e2e565b60405180910390fd5b600180546001600160a01b0319166001600160a01b0392909216919091179055565b606060038054610a169061314d565b80601f0160208091040260200160405190810160405280929190818152602001828054610a429061314d565b8015610a8f5780601f10610a6457610100808354040283529160200191610a8f565b820191906000526020600020905b815481529060010190602001808311610a7257829003601f168201915b5050505050905090565b6000610aa482611c58565b610ac05760405162461bcd60e51b81526004016109dc90612de2565b506000908152601360205260409020546001600160a01b031690565b6000610ae782611296565b9050806001600160a01b0316836001600160a01b03161415610b1b5760405162461bcd60e51b81526004016109dc90612f69565b336001600160a01b0382161480610b375750610b3781336119fd565b610b535760405162461bcd60e51b81526004016109dc90612cbd565b610b5d8383611c75565b505050565b610b6a611c54565b6001600160a01b0316610b7b61136f565b6001600160a01b031614610ba15760405162461bcd60e51b81526004016109dc90612e2e565b610b5d6006838361226e565b600054600160a01b900460ff1615610bd75760405162461bcd60e51b81526004016109dc90612c79565b6000805460ff60a01b1916600160a01b17905560075460ff16610bf957600080fd5b600954600d54600a54610c0c90846130bf565b610c1691906130bf565b10610c335760405162461bcd60e51b81526004016109dc90612b79565b600c54811115610c555760405162461bcd60e51b81526004016109dc90613067565b600b548160156000610c65611c54565b6001600160a01b03166001600160a01b0316815260200190815260200160002054610c9091906130bf565b1115610cae5760405162461bcd60e51b81526004016109dc90612faa565b600854610cbb90826130eb565b341015610cda5760405162461bcd60e51b81526004016109dc90612ad2565b600a546008543490600090610cef90856130eb565b610cf9908361310a565b905060005b84811015610d8057610d20610d11611c54565b610d1b83876130bf565b611ce3565b600a8054906000610d3083613188565b919050555060156000610d41611c54565b6001600160a01b0316815260208101919091526040016000908120805491610d6883613188565b91905055508080610d7890613188565b915050610cfe565b508015610e05576000336001600160a01b031682604051610da09061291b565b60006040518083038185875af1925050503d8060008114610ddd576040519150601f19603f3d011682016040523d82523d6000602084013e610de2565b606091505b5050905080610e035760405162461bcd60e51b81526004016109dc906129c0565b505b50506000805460ff60a01b191690555050565b630a85bd0160e11b95945050505050565b600a5490565b610e393382611cfd565b610e555760405162461bcd60e51b81526004016109dc90613016565b610b5d838383611d7a565b60075460ff1681565b610e71611c54565b6001600160a01b0316610e8261136f565b6001600160a01b031614610ea85760405162461bcd60e51b81526004016109dc90612e2e565b6007805461ff0019169055565b610ebd611c54565b6001600160a01b0316610ece61136f565b6001600160a01b031614610ef45760405162461bcd60e51b81526004016109dc90612e2e565b6007805460ff19169055565b610f08611c54565b6001600160a01b0316610f1961136f565b6001600160a01b031614610f3f5760405162461bcd60e51b81526004016109dc90612e2e565b6040514790339082156108fc029083906000818181858888f19350505050158015610f6e573d6000803e3d6000fd5b5050565b610b5d83838360405180602001604052806000815250611555565b600b5481565b600a5481565b60075462010000900460ff1681565b600754610100900460ff1681565b610fbe611c54565b6001600160a01b0316610fcf61136f565b6001600160a01b031614610ff55760405162461bcd60e51b81526004016109dc90612e2e565b8051610f6e9060059060208401906122f2565b82828261101733848484611593565b61102057600080fd5b600054600160a01b900460ff161561104a5760405162461bcd60e51b81526004016109dc90612c79565b6000805460ff60a01b1916600160a01b179055600754610100900460ff1661107157600080fd5b600954600d54600a54611084908a6130bf565b61108e91906130bf565b106110ab5760405162461bcd60e51b81526004016109dc90612b79565b600c548711156110cd5760405162461bcd60e51b81526004016109dc90613067565b600b5487601560006110dd611c54565b6001600160a01b03166001600160a01b031681526020019081526020016000205461110891906130bf565b11156111265760405162461bcd60e51b81526004016109dc90612faa565b60085461113390886130eb565b3410156111525760405162461bcd60e51b81526004016109dc90612ad2565b600a546008543490600090611167908b6130eb565b611171908361310a565b905060005b8a8110156111e957611189610d11611c54565b600a805490600061119983613188565b9190505550601560006111aa611c54565b6001600160a01b03168152602081019190915260400160009081208054916111d183613188565b919050555080806111e190613188565b915050611176565b50801561126e576000336001600160a01b0316826040516112099061291b565b60006040518083038185875af1925050503d8060008114611246576040519150601f19603f3d011682016040523d82523d6000602084013e61124b565b606091505b505090508061126c5760405162461bcd60e51b81526004016109dc906129c0565b505b50506000805460ff60a01b191690555050505050505050565b6001546001600160a01b031681565b6000818152601160205260408120546001600160a01b0316806109955760405162461bcd60e51b81526004016109dc90612d64565b600e5481565b60006001600160a01b0382166112f95760405162461bcd60e51b81526004016109dc90612d1a565b506001600160a01b031660009081526012602052604090205490565b61131d611c54565b6001600160a01b031661132e61136f565b6001600160a01b0316146113545760405162461bcd60e51b81526004016109dc90612e2e565b61135e6000611ea7565b565b6002546001600160a01b031681565b6000546001600160a01b031690565b611386611c54565b6001600160a01b031661139761136f565b6001600160a01b0316146113bd5760405162461bcd60e51b81526004016109dc90612e2e565b600855565b606060048054610a169061314d565b60085481565b6001600160a01b0382163314156114005760405162461bcd60e51b81526004016109dc90612b42565b3360008181526014602090815260408083206001600160a01b038716808552925291829020805460ff191685151517905590519091907f17307eab39ab6107e8899845ad3d59bd9653f200f220920489ca2b5937696c319061146390859061296f565b60405180910390a35050565b611477611c54565b6001600160a01b031661148861136f565b6001600160a01b0316146114ae5760405162461bcd60e51b81526004016109dc90612e2e565b6007805462ff0000191662010000179055565b6114c9611c54565b6001600160a01b03166114da61136f565b6001600160a01b0316146115005760405162461bcd60e51b81526004016109dc90612e2e565b600955565b61150d611c54565b6001600160a01b031661151e61136f565b6001600160a01b0316146115445760405162461bcd60e51b81526004016109dc90612e2e565b6007805461ff001916610100179055565b61155f3383611cfd565b61157b5760405162461bcd60e51b81526004016109dc90613016565b61158784848484611ef7565b50505050565b60095481565b60025460405160009182916115b6916001600160a01b0316908890602001612843565b6040516020818303038152906040528051906020012090506000816040516020016115e191906128ea565b60405160208183030381529060405280519060200120905060006001828689896040516000815260200160405260405161161e949392919061297a565b6020604051602081039080840390855afa158015611640573d6000803e3d6000fd5b5050604051601f1901516001549092506001600160a01b03808416911614905061167c5760405162461bcd60e51b81526004016109dc90612f32565b6001546001600160a01b03908116911614925050505b949350505050565b600680546116a79061314d565b80601f01602080910402602001604051908101604052809291908181526020018280546116d39061314d565b80156117205780601f106116f557610100808354040283529160200191611720565b820191906000526020600020905b81548152906001019060200180831161170357829003601f168201915b505050505081565b611730611c54565b6001600160a01b031661174161136f565b6001600160a01b0316146117675760405162461bcd60e51b81526004016109dc90612e2e565b600c55565b606061177782611c58565b6117935760405162461bcd60e51b81526004016109dc90612eac565b60075462010000900460ff166117cb5760056040516020016117b591906128c8565b6040516020818303038152906040529050610998565b60056117d683611f2a565b6040516020016117e792919061286a565b6040516020818303038152906040529050919050565b611805611c54565b6001600160a01b031661181661136f565b6001600160a01b03161461183c5760405162461bcd60e51b81526004016109dc90612e2e565b6007805460ff19166001179055565b611853611c54565b6001600160a01b031661186461136f565b6001600160a01b03161461188a5760405162461bcd60e51b81526004016109dc90612e2e565b600e54600d5461189a919061310a565b8111156118b95760405162461bcd60e51b81526004016109dc90612efb565b600a5460005b828110156118fd576118d584610d1b83856130bf565b600a80549060006118e583613188565b919050555080806118f590613188565b9150506118bf565b5081600d6000828254611910919061310a565b9091555050505050565b600f5481565b611928611c54565b6001600160a01b031661193961136f565b6001600160a01b03161461195f5760405162461bcd60e51b81526004016109dc90612e2e565b600f541561197f5760405162461bcd60e51b81526004016109dc90612c42565b43601055565b600d5481565b611993611c54565b6001600160a01b03166119a461136f565b6001600160a01b0316146119ca5760405162461bcd60e51b81526004016109dc90612e2e565b600b55565b60105481565b606060056040516020016119e9919061289f565b604051602081830303815290604052905090565b6001600160a01b03918216600090815260146020908152604080832093909416825291909152205460ff1690565b611a33611c54565b6001600160a01b0316611a4461136f565b6001600160a01b031614611a6a5760405162461bcd60e51b81526004016109dc90612e2e565b600f5415611a8a5760405162461bcd60e51b81526004016109dc90612c42565b601054611aa95760405162461bcd60e51b81526004016109dc90612fe1565b600954601054611aba9190406131a3565b600f5560105460ff90611acd90436131a3565b1115611af057600954611ae160014361310a565b611aec9190406131a3565b600f555b600f5461135e57600f54611b059060016130bf565b600f55565b611b12611c54565b6001600160a01b0316611b2361136f565b6001600160a01b031614611b495760405162461bcd60e51b81526004016109dc90612e2e565b600e54811115611b6b5760405162461bcd60e51b81526004016109dc90612bfc565b600a5460005b82811015611baf57611b8784610d1b83856130bf565b600a8054906000611b9783613188565b91905055508080611ba790613188565b915050611b71565b5081600e6000828254611910919061310a565b611bca611c54565b6001600160a01b0316611bdb61136f565b6001600160a01b031614611c015760405162461bcd60e51b81526004016109dc90612e2e565b6001600160a01b038116611c275760405162461bcd60e51b81526004016109dc90612a55565b611c3081611ea7565b50565b6001600160a01b031660009081526012602052604090205490565b600c5481565b3390565b6000908152601160205260409020546001600160a01b0316151590565b600081815260136020526040902080546001600160a01b0319166001600160a01b0384169081179091558190611caa82611296565b6001600160a01b03167f8c5be1e5ebec7d5bd14f71427d1e84f3dd0314c0f7b2291e5b200ac8c7c3b92560405160405180910390a45050565b610f6e828260405180602001604052806000815250612045565b6000611d0882611c58565b611d245760405162461bcd60e51b81526004016109dc90612bb0565b6000611d2f83611296565b9050806001600160a01b0316846001600160a01b03161480611d6a5750836001600160a01b0316611d5f84610a99565b6001600160a01b0316145b80611692575061169281856119fd565b826001600160a01b0316611d8d82611296565b6001600160a01b031614611db35760405162461bcd60e51b81526004016109dc90612e63565b6001600160a01b038216611dd95760405162461bcd60e51b81526004016109dc90612afe565b611de4838383610b5d565b611def600082611c75565b6001600160a01b0383166000908152601260205260408120805460019290611e1890849061310a565b90915550506001600160a01b0382166000908152601260205260408120805460019290611e469084906130bf565b909155505060008181526011602052604080822080546001600160a01b0319166001600160a01b0386811691821790925591518493918716917fddf252ad1be2c89b69c2b068fc378daa952ba7f163c4a11628f55a4df523b3ef91a4505050565b600080546001600160a01b038381166001600160a01b0319831681178455604051919092169283917f8be0079c531659141344cd1fd0a4f28419497f9722a3daafe3b4186f6b6457e09190a35050565b611f02848484611d7a565b611f0e84848484612078565b6115875760405162461bcd60e51b81526004016109dc90612a03565b606081611f4f57506040805180820190915260018152600360fc1b6020820152610998565b8160005b8115611f795780611f6381613188565b9150611f729050600a836130d7565b9150611f53565b60008167ffffffffffffffff811115611fa257634e487b7160e01b600052604160045260246000fd5b6040519080825280601f01601f191660200182016040528015611fcc576020820181803683370190505b5090505b841561169257611fe160018361310a565b9150611fee600a866131a3565b611ff99060306130bf565b60f81b81838151811061201c57634e487b7160e01b600052603260045260246000fd5b60200101906001600160f81b031916908160001a90535061203e600a866130d7565b9450611fd0565b61204f8383612189565b61205c6000848484612078565b610b5d5760405162461bcd60e51b81526004016109dc90612a03565b600061208c846001600160a01b0316612268565b1561218157604051630a85bd0160e11b81526001600160a01b0385169063150b7a02906120c3903390899088908890600401612932565b602060405180830381600087803b1580156120dd57600080fd5b505af192505050801561210d575060408051601f3d908101601f1916820190925261210a91810190612692565b60015b612167573d80801561213b576040519150601f19603f3d011682016040523d82523d6000602084013e612140565b606091505b50805161215f5760405162461bcd60e51b81526004016109dc90612a03565b805181602001fd5b6001600160e01b031916630a85bd0160e11b149050611692565b506001611692565b6001600160a01b0382166121af5760405162461bcd60e51b81526004016109dc90612dad565b6121b881611c58565b156121d55760405162461bcd60e51b81526004016109dc90612a9b565b6121e160008383610b5d565b6001600160a01b038216600090815260126020526040812080546001929061220a9084906130bf565b909155505060008181526011602052604080822080546001600160a01b0319166001600160a01b03861690811790915590518392907fddf252ad1be2c89b69c2b068fc378daa952ba7f163c4a11628f55a4df523b3ef908290a45050565b3b151590565b82805461227a9061314d565b90600052602060002090601f01602090048101928261229c57600085556122e2565b82601f106122b55782800160ff198235161785556122e2565b828001600101855582156122e2579182015b828111156122e25782358255916020019190600101906122c7565b506122ee929150612366565b5090565b8280546122fe9061314d565b90600052602060002090601f01602090048101928261232057600085556122e2565b82601f1061233957805160ff19168380011785556122e2565b828001600101855582156122e2579182015b828111156122e257825182559160200191906001019061234b565b5b808211156122ee5760008155600101612367565b600067ffffffffffffffff80841115612396576123966131e3565b604051601f8501601f1916810160200182811182821017156123ba576123ba6131e3565b6040528481529150818385018610156123d257600080fd5b8484602083013760006020868301015250509392505050565b80356001600160a01b038116811461099857600080fd5b60008083601f840112612413578182fd5b50813567ffffffffffffffff81111561242a578182fd5b60208301915083602082850101111561244257600080fd5b9250929050565b803560ff8116811461099857600080fd5b60006020828403121561246b578081fd5b612474826123eb565b9392505050565b6000806040838503121561248d578081fd5b612496836123eb565b91506124a4602084016123eb565b90509250929050565b6000806000606084860312156124c1578081fd5b6124ca846123eb565b92506124d8602085016123eb565b9150604084013590509250925092565b6000806000806000608086880312156124ff578081fd5b612508866123eb565b9450612516602087016123eb565b935060408601359250606086013567ffffffffffffffff811115612538578182fd5b61254488828901612402565b969995985093965092949392505050565b6000806000806080858703121561256a578384fd5b612573856123eb565b9350612581602086016123eb565b925060408501359150606085013567ffffffffffffffff8111156125a3578182fd5b8501601f810187136125b3578182fd5b6125c28782356020840161237b565b91505092959194509250565b600080604083850312156125e0578182fd5b6125e9836123eb565b9150602083013580151581146125fd578182fd5b809150509250929050565b6000806000806080858703121561261d578384fd5b612626856123eb565b9350602085013592506040850135915061264260608601612449565b905092959194509250565b6000806040838503121561265f578182fd5b612668836123eb565b946020939093013593505050565b600060208284031215612687578081fd5b8135612474816131f9565b6000602082840312156126a3578081fd5b8151612474816131f9565b600080602083850312156126c0578182fd5b823567ffffffffffffffff8111156126d6578283fd5b6126e285828601612402565b90969095509350505050565b6000602082840312156126ff578081fd5b813567ffffffffffffffff811115612715578182fd5b8201601f81018413612725578182fd5b6116928482356020840161237b565b600060208284031215612745578081fd5b5035919050565b60008060008060808587031215612761578182fd5b84359350602085013592506040850135915061264260608601612449565b60008151808452612797816020860160208601613121565b601f01601f19169290920160200192915050565b8054600090600281046001808316806127c557607f831692505b60208084108214156127e557634e487b7160e01b86526022600452602486fd5b8180156127f9576001811461280a57612837565b60ff19861689528489019650612837565b612813886130b3565b60005b8681101561282f5781548b820152908501908301612816565b505084890196505b50505050505092915050565b6bffffffffffffffffffffffff19606093841b811682529190921b16601482015260280190565b600061287682856127ab565b8351612886818360208801613121565b64173539b7b760d91b9101908152600501949350505050565b60006128ab82846127ab565b6c31b7b73a3930b1ba173539b7b760991b8152600d019392505050565b60006128d482846127ab565b6518173539b7b760d11b81526006019392505050565b7f19457468657265756d205369676e6564204d6573736167653a0a3332000000008152601c810191909152603c0190565b90565b6001600160a01b0391909116815260200190565b6001600160a01b03858116825284166020820152604081018390526080606082018190526000906129659083018461277f565b9695505050505050565b901515815260200190565b93845260ff9290921660208401526040830152606082015260800190565b6001600160e01b031991909116815260200190565b600060208252612474602083018461277f565b60208082526023908201527f4d696e743a20756e61626c6520746f2073656e64206368616e676520746f207560408201526239b2b960e91b606082015260800190565b60208082526032908201527f4552433732313a207472616e7366657220746f206e6f6e20455243373231526560408201527131b2b4bb32b91034b6b83632b6b2b73a32b960711b606082015260800190565b60208082526026908201527f4f776e61626c653a206e6577206f776e657220697320746865207a65726f206160408201526564647265737360d01b606082015260800190565b6020808252601c908201527f4552433732313a20746f6b656e20616c7265616479206d696e74656400000000604082015260600190565b602080825260129082015271496e73756666696369656e742046756e647360701b604082015260600190565b60208082526024908201527f4552433732313a207472616e7366657220746f20746865207a65726f206164646040820152637265737360e01b606082015260800190565b60208082526019908201527f4552433732313a20617070726f766520746f2063616c6c657200000000000000604082015260600190565b60208082526017908201527f4e6f7420656e6f75676820617661696c6162696c697479000000000000000000604082015260600190565b6020808252602c908201527f4552433732313a206f70657261746f7220717565727920666f72206e6f6e657860408201526b34b9ba32b73a103a37b5b2b760a11b606082015260800190565b60208082526026908201527f4578636565647320726573657276656420476f6c64656e204e6f6f646c657320604082015265737570706c7960d01b606082015260800190565b6020808252601d908201527f5374617274696e6720696e64657820697320616c726561647920736574000000604082015260600190565b60208082526024908201527f617474656d707420746f207265656e7465722061206c6f636b65642066756e636040820152633a34b7b760e11b606082015260800190565b60208082526038908201527f4552433732313a20617070726f76652063616c6c6572206973206e6f74206f7760408201527f6e6572206e6f7220617070726f76656420666f7220616c6c0000000000000000606082015260800190565b6020808252602a908201527f4552433732313a2062616c616e636520717565727920666f7220746865207a65604082015269726f206164647265737360b01b606082015260800190565b60208082526029908201527f4552433732313a206f776e657220717565727920666f72206e6f6e657869737460408201526832b73a103a37b5b2b760b91b606082015260800190565b6020808252818101527f4552433732313a206d696e7420746f20746865207a65726f2061646472657373604082015260600190565b6020808252602c908201527f4552433732313a20617070726f76656420717565727920666f72206e6f6e657860408201526b34b9ba32b73a103a37b5b2b760a11b606082015260800190565b6020808252818101527f4f776e61626c653a2063616c6c6572206973206e6f7420746865206f776e6572604082015260600190565b60208082526029908201527f4552433732313a207472616e73666572206f6620746f6b656e2074686174206960408201526839903737ba1037bbb760b91b606082015260800190565b6020808252602f908201527f4552433732314d657461646174613a2055524920717565727920666f72206e6f60408201526e3732bc34b9ba32b73a103a37b5b2b760891b606082015260800190565b6020808252601f908201527f45786365656473207265736572766564204e6f6f646c657320737570706c7900604082015260600190565b60208082526018908201527f5369676e617475726520646f6573206e6f74206d617463680000000000000000604082015260600190565b60208082526021908201527f4552433732313a20617070726f76616c20746f2063757272656e74206f776e656040820152603960f91b606082015260800190565b6020808252601e908201527f45786365656473204d617820616c6c6f776564207065722077616c6c65740000604082015260600190565b6020808252818101527f5374617274696e6720696e64657820626c6f636b206d75737420626520736574604082015260600190565b60208082526031908201527f4552433732313a207472616e736665722063616c6c6572206973206e6f74206f6040820152701ddb995c881b9bdc88185c1c1c9bdd9959607a1b606082015260800190565b60208082526023908201527f45786365656473206d617820616c6c6f77656420706572207472616e7361637460408201526234b7b760e91b606082015260800190565b90815260200190565b60009081526020902090565b600082198211156130d2576130d26131b7565b500190565b6000826130e6576130e66131cd565b500490565b6000816000190483118215151615613105576131056131b7565b500290565b60008282101561311c5761311c6131b7565b500390565b60005b8381101561313c578181015183820152602001613124565b838111156115875750506000910152565b60028104600182168061316157607f821691505b6020821081141561318257634e487b7160e01b600052602260045260246000fd5b50919050565b600060001982141561319c5761319c6131b7565b5060010190565b6000826131b2576131b26131cd565b500690565b634e487b7160e01b600052601160045260246000fd5b634e487b7160e01b600052601260045260246000fd5b634e487b7160e01b600052604160045260246000fd5b6001600160e01b031981168114611c3057600080fdfea26469706673582212202f99958bc5d5acc422230a065a181c9103b78ada463ec56f42d17b49fa38cbe364736f6c63430008000033",
  "immutableReferences": {},
  "source": "// File contracts/IERC165.sol\r\n\r\n// SPDX-License-Identifier: MIT\r\n\r\npragma solidity ^0.8.0;\r\n\r\n/*\r\n    Fully commented standard ERC721 Distilled from OpenZeppelin Docs\r\n    Base for Building ERC721 by Martin McConnell\r\n    All the utility without the fluff.\r\n*/\r\n\r\n\r\ninterface IERC165 {\r\n    function supportsInterface(bytes4 interfaceId) external view returns (bool);\r\n}\r\n\r\n\r\n// File contracts/IERC721.sol\r\n\r\npragma solidity ^0.8.0;\r\n\r\ninterface IERC721 is IERC165 {\r\n    //@dev Emitted when `tokenId` token is transferred from `from` to `to`.\r\n    event Transfer(address indexed from, address indexed to, uint256 indexed tokenId);\r\n\r\n    //@dev Emitted when `owner` enables `approved` to manage the `tokenId` token.\r\n    event Approval(address indexed owner, address indexed approved, uint256 indexed tokenId);\r\n\r\n    //@dev Emitted when `owner` enables or disables (`approved`) `operator` to manage all of its assets.\r\n    event ApprovalForAll(address indexed owner, address indexed operator, bool approved);\r\n\r\n    //@dev Returns the number of tokens in ``owner``'s account.\r\n    function balanceOf(address owner) external view returns (uint256 balance);\r\n\r\n    /**\r\n     * @dev Returns the owner of the `tokenId` token.\r\n     *\r\n     * Requirements:\r\n     *\r\n     * - `tokenId` must exist.\r\n     */\r\n    function ownerOf(uint256 tokenId) external view returns (address owner);\r\n\r\n    /**\r\n     * @dev Safely transfers `tokenId` token from `from` to `to`, checking first that contract recipients\r\n     * are aware of the ERC721 protocol to prevent tokens from being forever locked.\r\n     *\r\n     * Requirements:\r\n     *\r\n     * - `from` cannot be the zero address.\r\n     * - `to` cannot be the zero address.\r\n     * - `tokenId` token must exist and be owned by `from`.\r\n     * - If the caller is not `from`, it must be have been allowed to move this token by either {approve} or {setApprovalForAll}.\r\n     * - If `to` refers to a smart contract, it must implement {IERC721Receiver-onERC721Received}, which is called upon a safe transfer.\r\n     *\r\n     * Emits a {Transfer} event.\r\n     */\r\n    function safeTransferFrom(address from,address to,uint256 tokenId) external;\r\n\r\n    /**\r\n     * @dev Transfers `tokenId` token from `from` to `to`.\r\n     *\r\n     * WARNING: Usage of this method is discouraged, use {safeTransferFrom} whenever possible.\r\n     *\r\n     * Requirements:\r\n     *\r\n     * - `from` cannot be the zero address.\r\n     * - `to` cannot be the zero address.\r\n     * - `tokenId` token must be owned by `from`.\r\n     * - If the caller is not `from`, it must be approved to move this token by either {approve} or {setApprovalForAll}.\r\n     *\r\n     * Emits a {Transfer} event.\r\n     */\r\n    function transferFrom(address from, address to, uint256 tokenId) external;\r\n\r\n    /**\r\n     * @dev Gives permission to `to` to transfer `tokenId` token to another account.\r\n     * The approval is cleared when the token is transferred.\r\n     *\r\n     * Only a single account can be approved at a time, so approving the zero address clears previous approvals.\r\n     *\r\n     * Requirements:\r\n     *\r\n     * - The caller must own the token or be an approved operator.\r\n     * - `tokenId` must exist.\r\n     *\r\n     * Emits an {Approval} event.\r\n     */\r\n    function approve(address to, uint256 tokenId) external;\r\n\r\n    /**\r\n     * @dev Returns the account approved for `tokenId` token.\r\n     *\r\n     * Requirements:\r\n     *\r\n     * - `tokenId` must exist.\r\n     */\r\n    function getApproved(uint256 tokenId) external view returns (address operator);\r\n\r\n    /**\r\n     * @dev Approve or remove `operator` as an operator for the caller.\r\n     * Operators can call {transferFrom} or {safeTransferFrom} for any token owned by the caller.\r\n     *\r\n     * Requirements:\r\n     * - The `operator` cannot be the caller.\r\n     *\r\n     * Emits an {ApprovalForAll} event.\r\n     */\r\n    function setApprovalForAll(address operator, bool _approved) external;\r\n\r\n    //@dev Returns if the `operator` is allowed to manage all of the assets of `owner`.\r\n    function isApprovedForAll(address owner, address operator) external view returns (bool);\r\n\r\n    /**\r\n     * @dev Safely transfers `tokenId` token from `from` to `to`.\r\n     *\r\n     * Requirements:\r\n     *\r\n     * - `from` cannot be the zero address.\r\n     * - `to` cannot be the zero address.\r\n     * - `tokenId` token must exist and be owned by `from`.\r\n     * - If the caller is not `from`, it must be approved to move this token by either {approve} or {setApprovalForAll}.\r\n     * - If `to` refers to a smart contract, it must implement {IERC721Receiver-onERC721Received}, which is called upon a safe transfer.\r\n     *\r\n     * Emits a {Transfer} event.\r\n     */\r\n    function safeTransferFrom(address from, address to, uint256 tokenId, bytes calldata data) external;\r\n}\r\n\r\n\r\n// File contracts/IERC721Receiver.sol\r\n\r\npragma solidity ^0.8.0;\r\ninterface IERC721Receiver {\r\n    /**\r\n     * @dev Whenever an {IERC721} `tokenId` token is transferred to this contract via {IERC721-safeTransferFrom}\r\n     * by `operator` from `from`, this function is called.\r\n     *\r\n     * It must return its Solidity selector to confirm the token transfer.\r\n     * If any other value is returned or the interface is not implemented by the recipient, the transfer will be reverted.\r\n     *\r\n     * The selector can be obtained in Solidity with `IERC721.onERC721Received.selector`.\r\n     */\r\n    function onERC721Received(address operator, address from, uint256 tokenId, bytes calldata data) external returns (bytes4);\r\n}\r\n\r\n\r\n// File contracts/IERC721Metadata.sol\r\n\r\npragma solidity ^0.8.0;\r\n\r\ninterface IERC721Metadata is IERC721 {\r\n    //@dev Returns the token collection name.\r\n    function name() external view returns (string memory);\r\n\r\n    //@dev Returns the token collection symbol.\r\n    function symbol() external view returns (string memory);\r\n\r\n    //@dev Returns the Uniform Resource Identifier (URI) for `tokenId` token.\r\n    function tokenURI(uint256 tokenId) external view returns (string memory);\r\n}\r\n\r\n\r\n// File contracts/Context.sol\r\n\r\npragma solidity ^0.8.0;\r\n\r\n\r\n\r\nabstract contract Context {\r\n    function _msgSender() internal view virtual returns (address) {\r\n        return msg.sender;\r\n    }\r\n\r\n    function _msgData() internal view virtual returns (bytes calldata) {\r\n        return msg.data;\r\n    }\r\n}\r\n\r\n\r\n// File contracts/Ownable.sol\r\n\r\npragma solidity ^0.8.0;\r\n\r\nabstract contract Ownable is Context {\r\n    address private _owner;\r\n\r\n    event OwnershipTransferred(address indexed previousOwner, address indexed newOwner);\r\n\r\n    /**\r\n     * @dev Initializes the contract setting the deployer as the initial owner.\r\n     */\r\n    constructor() {\r\n        _setOwner(_msgSender());\r\n    }\r\n\r\n    /**\r\n     * @dev Returns the address of the current owner.\r\n     */\r\n    function owner() public view virtual returns (address) {\r\n        return _owner;\r\n    }\r\n\r\n    /**\r\n     * @dev Throws if called by any account other than the owner.\r\n     */\r\n    modifier onlyOwner() {\r\n        require(owner() == _msgSender(), \"Ownable: caller is not the owner\");\r\n        _;\r\n    }\r\n\r\n    /**\r\n     * @dev Leaves the contract without owner. It will not be possible to call\r\n     * `onlyOwner` functions anymore. Can only be called by the current owner.\r\n     *\r\n     * NOTE: Renouncing ownership will leave the contract without an owner,\r\n     * thereby removing any functionality that is only available to the owner.\r\n     */\r\n    function renounceOwnership() public virtual onlyOwner {\r\n        _setOwner(address(0));\r\n    }\r\n\r\n    /**\r\n     * @dev Transfers ownership of the contract to a new account (`newOwner`).\r\n     * Can only be called by the current owner.\r\n     */\r\n    function transferOwnership(address newOwner) public virtual onlyOwner {\r\n        require(newOwner != address(0), \"Ownable: new owner is the zero address\");\r\n        _setOwner(newOwner);\r\n    }\r\n\r\n    function _setOwner(address newOwner) private {\r\n        address oldOwner = _owner;\r\n        _owner = newOwner;\r\n        emit OwnershipTransferred(oldOwner, newOwner);\r\n    }\r\n}\r\n\r\n\r\n// File contracts/Functional.sol\r\n\r\npragma solidity ^0.8.0;\r\n\r\n\r\nabstract contract Functional {\r\n    function toString(uint256 value) internal pure returns (string memory) {\r\n        if (value == 0) {\r\n            return \"0\";\r\n        }\r\n        uint256 temp = value;\r\n        uint256 digits;\r\n        while (temp != 0) {\r\n            digits++;\r\n            temp /= 10;\r\n        }\r\n        bytes memory buffer = new bytes(digits);\r\n        while (value != 0) {\r\n            digits -= 1;\r\n            buffer[digits] = bytes1(uint8(48 + uint256(value % 10)));\r\n            value /= 10;\r\n        }\r\n        return string(buffer);\r\n    }\r\n    \r\n    bool private _reentryKey = false;\r\n    modifier reentryLock {\r\n        require(!_reentryKey, \"attempt to reenter a locked function\");\r\n        _reentryKey = true;\r\n        _;\r\n        _reentryKey = false;\r\n    }\r\n}\r\n\r\n\r\n// File contracts/Address.sol\r\n\r\npragma solidity ^0.8.0;\r\n\r\nlibrary Address {\r\n    /**\r\n     * @dev Returns true if `account` is a contract.\r\n     *\r\n     * [IMPORTANT]\r\n     * ====\r\n     * It is unsafe to assume that an address for which this function returns\r\n     * false is an externally-owned account (EOA) and not a contract.\r\n     *\r\n     * Among others, `isContract` will return false for the following\r\n     * types of addresses:\r\n     *\r\n     *  - an externally-owned account\r\n     *  - a contract in construction\r\n     *  - an address where a contract will be created\r\n     *  - an address where a contract lived, but was destroyed\r\n     * ====\r\n     */\r\n    function isContract(address account) internal view returns (bool) {\r\n        // This method relies on extcodesize, which returns 0 for contracts in\r\n        // construction, since the code is only stored at the end of the\r\n        // constructor execution.\r\n\r\n        uint256 size;\r\n        assembly {\r\n            size := extcodesize(account)\r\n        }\r\n        return size > 0;\r\n    }\r\n\r\n    /**\r\n     * @dev Replacement for Solidity's `transfer`: sends `amount` wei to\r\n     * `recipient`, forwarding all available gas and reverting on errors.\r\n     *\r\n     * https://eips.ethereum.org/EIPS/eip-1884[EIP1884] increases the gas cost\r\n     * of certain opcodes, possibly making contracts go over the 2300 gas limit\r\n     * imposed by `transfer`, making them unable to receive funds via\r\n     * `transfer`. {sendValue} removes this limitation.\r\n     *\r\n     * https://diligence.consensys.net/posts/2019/09/stop-using-soliditys-transfer-now/[Learn more].\r\n     *\r\n     * IMPORTANT: because control is transferred to `recipient`, care must be\r\n     * taken to not create reentrancy vulnerabilities. Consider using\r\n     * {ReentrancyGuard} or the\r\n     * https://solidity.readthedocs.io/en/v0.5.11/security-considerations.html#use-the-checks-effects-interactions-pattern[checks-effects-interactions pattern].\r\n     */\r\n    function sendValue(address payable recipient, uint256 amount) internal {\r\n        require(address(this).balance >= amount, \"Address: insufficient balance\");\r\n\r\n        (bool success, ) = recipient.call{value: amount}(\"\");\r\n        require(success, \"Address: unable to send value, recipient may have reverted\");\r\n    }\r\n\r\n    /**\r\n     * @dev Performs a Solidity function call using a low level `call`. A\r\n     * plain `call` is an unsafe replacement for a function call: use this\r\n     * function instead.\r\n     *\r\n     * If `target` reverts with a revert reason, it is bubbled up by this\r\n     * function (like regular Solidity function calls).\r\n     *\r\n     * Returns the raw returned data. To convert to the expected return value,\r\n     * use https://solidity.readthedocs.io/en/latest/units-and-global-variables.html?highlight=abi.decode#abi-encoding-and-decoding-functions[`abi.decode`].\r\n     *\r\n     * Requirements:\r\n     *\r\n     * - `target` must be a contract.\r\n     * - calling `target` with `data` must not revert.\r\n     *\r\n     * _Available since v3.1._\r\n     */\r\n    function functionCall(address target, bytes memory data) internal returns (bytes memory) {\r\n        return functionCall(target, data, \"Address: low-level call failed\");\r\n    }\r\n\r\n    /**\r\n     * @dev Same as {xref-Address-functionCall-address-bytes-}[`functionCall`], but with\r\n     * `errorMessage` as a fallback revert reason when `target` reverts.\r\n     *\r\n     * _Available since v3.1._\r\n     */\r\n    function functionCall(\r\n        address target,\r\n        bytes memory data,\r\n        string memory errorMessage\r\n    ) internal returns (bytes memory) {\r\n        return functionCallWithValue(target, data, 0, errorMessage);\r\n    }\r\n\r\n    /**\r\n     * @dev Same as {xref-Address-functionCall-address-bytes-}[`functionCall`],\r\n     * but also transferring `value` wei to `target`.\r\n     *\r\n     * Requirements:\r\n     *\r\n     * - the calling contract must have an ETH balance of at least `value`.\r\n     * - the called Solidity function must be `payable`.\r\n     *\r\n     * _Available since v3.1._\r\n     */\r\n    function functionCallWithValue(\r\n        address target,\r\n        bytes memory data,\r\n        uint256 value\r\n    ) internal returns (bytes memory) {\r\n        return functionCallWithValue(target, data, value, \"Address: low-level call with value failed\");\r\n    }\r\n\r\n    /**\r\n     * @dev Same as {xref-Address-functionCallWithValue-address-bytes-uint256-}[`functionCallWithValue`], but\r\n     * with `errorMessage` as a fallback revert reason when `target` reverts.\r\n     *\r\n     * _Available since v3.1._\r\n     */\r\n    function functionCallWithValue(\r\n        address target,\r\n        bytes memory data,\r\n        uint256 value,\r\n        string memory errorMessage\r\n    ) internal returns (bytes memory) {\r\n        require(address(this).balance >= value, \"Address: insufficient balance for call\");\r\n        require(isContract(target), \"Address: call to non-contract\");\r\n\r\n        (bool success, bytes memory returndata) = target.call{value: value}(data);\r\n        return _verifyCallResult(success, returndata, errorMessage);\r\n    }\r\n\r\n    /**\r\n     * @dev Same as {xref-Address-functionCall-address-bytes-}[`functionCall`],\r\n     * but performing a static call.\r\n     *\r\n     * _Available since v3.3._\r\n     */\r\n    function functionStaticCall(address target, bytes memory data) internal view returns (bytes memory) {\r\n        return functionStaticCall(target, data, \"Address: low-level static call failed\");\r\n    }\r\n\r\n    /**\r\n     * @dev Same as {xref-Address-functionCall-address-bytes-string-}[`functionCall`],\r\n     * but performing a static call.\r\n     *\r\n     * _Available since v3.3._\r\n     */\r\n    function functionStaticCall(\r\n        address target,\r\n        bytes memory data,\r\n        string memory errorMessage\r\n    ) internal view returns (bytes memory) {\r\n        require(isContract(target), \"Address: static call to non-contract\");\r\n\r\n        (bool success, bytes memory returndata) = target.staticcall(data);\r\n        return _verifyCallResult(success, returndata, errorMessage);\r\n    }\r\n\r\n    /**\r\n     * @dev Same as {xref-Address-functionCall-address-bytes-}[`functionCall`],\r\n     * but performing a delegate call.\r\n     *\r\n     * _Available since v3.4._\r\n     */\r\n    function functionDelegateCall(address target, bytes memory data) internal returns (bytes memory) {\r\n        return functionDelegateCall(target, data, \"Address: low-level delegate call failed\");\r\n    }\r\n\r\n    /**\r\n     * @dev Same as {xref-Address-functionCall-address-bytes-string-}[`functionCall`],\r\n     * but performing a delegate call.\r\n     *\r\n     * _Available since v3.4._\r\n     */\r\n    function functionDelegateCall(\r\n        address target,\r\n        bytes memory data,\r\n        string memory errorMessage\r\n    ) internal returns (bytes memory) {\r\n        require(isContract(target), \"Address: delegate call to non-contract\");\r\n\r\n        (bool success, bytes memory returndata) = target.delegatecall(data);\r\n        return _verifyCallResult(success, returndata, errorMessage);\r\n    }\r\n\r\n    function _verifyCallResult(\r\n        bool success,\r\n        bytes memory returndata,\r\n        string memory errorMessage\r\n    ) private pure returns (bytes memory) {\r\n        if (success) {\r\n            return returndata;\r\n        } else {\r\n            // Look for revert reason and bubble it up if present\r\n            if (returndata.length > 0) {\r\n                // The easiest way to bubble the revert reason is using memory via assembly\r\n\r\n                assembly {\r\n                    let returndata_size := mload(returndata)\r\n                    revert(add(32, returndata), returndata_size)\r\n                }\r\n            } else {\r\n                revert(errorMessage);\r\n            }\r\n        }\r\n    }\r\n}\r\n\r\n\r\n// File contracts/ControlledAccess.sol\r\n\r\npragma solidity ^0.8.0;\r\n\r\n/* @title ControlledAccess\r\n * @dev The ControlledAccess contract allows function to be restricted to users\r\n * that possess a signed authorization from the owner of the contract. This signed\r\n * message includes the user to give permission to and the contract address to prevent\r\n * reusing the same authorization message on different contract with same owner.\r\n */\r\n\r\ncontract ControlledAccess is Ownable {\r\n    address public signerAddress;\r\n    address public owner1 = 0x5916cbaF66a7bFa2B0F2bF60c05cb16763F051F8;\r\n\r\n    /*\r\n     * @dev Requires msg.sender to have valid access message.\r\n     * @param _v ECDSA signature parameter v.\r\n     * @param _r ECDSA signature parameters r.\r\n     * @param _s ECDSA signature parameters s.\r\n     */\r\n    modifier onlyValidAccess(\r\n        bytes32 _r,\r\n        bytes32 _s,\r\n        uint8 _v\r\n    ) {\r\n        require(isValidAccessMessage(msg.sender, _r, _s, _v));\r\n        _;\r\n    }\r\n\r\n    function setSignerAddress(address newAddress) external onlyOwner {\r\n        signerAddress = newAddress;\r\n    }\r\n\r\n    /*\r\n     * @dev Verifies if message was signed by owner to give access to _add for this contract.\r\n     *      Assumes Geth signature prefix.\r\n     * @param _add Address of agent with access\r\n     * @param _v ECDSA signature parameter v.\r\n     * @param _r ECDSA signature parameters r.\r\n     * @param _s ECDSA signature parameters s.\r\n     * @return Validity of access message for a given address.\r\n     */\r\n    function isValidAccessMessage(\r\n        address _add,\r\n        bytes32 _r,\r\n        bytes32 _s,\r\n        uint8 _v\r\n    ) public view returns (bool) {\r\n        bytes32 hash = keccak256(abi.encodePacked(owner1, _add));\r\n        bytes32 message = keccak256(\r\n            abi.encodePacked(\"\\x19Ethereum Signed Message:\\n32\", hash)\r\n        );\r\n        address sig = ecrecover(message, _v, _r, _s);\r\n\r\n        require(signerAddress == sig, \"Signature does not match\");\r\n\r\n        return signerAddress == sig;\r\n    }\r\n}\r\n\r\n\r\npragma solidity ^0.8.0;\r\n\r\n// project: Doodle Noodles\r\n/**\r\n ____                        __   ___               __  __                      __   ___                    \r\n/\\  _`\\                     /\\ \\ /\\_ \\             /\\ \\/\\ \\                    /\\ \\ /\\_ \\                   \r\n\\ \\ \\/\\ \\    ___     ___    \\_\\ \\\\//\\ \\      __    \\ \\ `\\\\ \\    ___     ___    \\_\\ \\\\//\\ \\      __    ____  \r\n \\ \\ \\ \\ \\  / __`\\  / __`\\  /'_` \\ \\ \\ \\   /'__`\\   \\ \\ , ` \\  / __`\\  / __`\\  /'_` \\ \\ \\ \\   /'__`\\ /',__\\ \r\n  \\ \\ \\_\\ \\/\\ \\L\\ \\/\\ \\L\\ \\/\\ \\L\\ \\ \\_\\ \\_/\\  __/    \\ \\ \\`\\ \\/\\ \\L\\ \\/\\ \\L\\ \\/\\ \\L\\ \\ \\_\\ \\_/\\  __//\\__, `\\\r\n   \\ \\____/\\ \\____/\\ \\____/\\ \\___,_\\/\\____\\ \\____\\    \\ \\_\\ \\_\\ \\____/\\ \\____/\\ \\___,_\\/\\____\\ \\____\\/\\____/\r\n    \\/___/  \\/___/  \\/___/  \\/__,_ /\\/____/\\/____/     \\/_/\\/_/\\/___/  \\/___/  \\/__,_ /\\/____/\\/____/\\/___/                                                                                                     \r\n */\r\n\r\n\r\ncontract DoodleNoodles is IERC721, Ownable, Functional, ControlledAccess {\r\n\r\n    using Address for address;\r\n\r\n    // Declare variables\r\n    string private _name;\r\n    string private _symbol;\r\n    string private _baseURI;\r\n    string public provenanceHash;\r\n\r\n    bool public mintActive;\r\n    bool public presaleActive;\r\n    bool public revealed;\r\n    uint256 public price;\r\n    uint256 public totalNoodles;\r\n    uint256 public numberMinted;\r\n    uint256 public maxPerWallet;\r\n    uint256 public maxPerTx;\r\n    uint256 public reservedNoodles;\r\n    uint256 public goldenNoodles;\r\n    uint256 public startingIndex;\r\n    uint256 public startingIndexBlock;\r\n    \r\n    // Mappings\r\n    mapping(uint256 => address) private _owners;\r\n    mapping(address => uint256) private _balances;\r\n    mapping(uint256 => address) private _tokenApprovals;\r\n    mapping(address => mapping(address => bool)) private _operatorApprovals;\r\n    mapping(address => uint256) private _tokensMintedby;\r\n\r\n    // Initialise contract\r\n    constructor() {\r\n        _name = \"Doodle Noodles Official\";\r\n        _symbol = \"NOODS\";\r\n\r\n        revealed = false;\r\n        mintActive = false;\r\n        presaleActive = false;\r\n        totalNoodles = 5555;\r\n        price = 0.06 ether;\r\n        maxPerWallet = 5;\r\n        maxPerTx = 5;\r\n        reservedNoodles = 40; // reserved for giveaways and such\r\n        goldenNoodles = 5; // Defines 5 custom Golden Noodles\r\n        signerAddress = 0x5916cbaF66a7bFa2B0F2bF60c05cb16763F051F8;\r\n    }\r\n\r\n    //@dev See {IERC165-supportsInterface}. Interfaces Supported by this Standard\r\n    function supportsInterface(bytes4 interfaceId) public view virtual override returns (bool) {\r\n        return  interfaceId == type(IERC721).interfaceId ||\r\n                interfaceId == type(IERC721Metadata).interfaceId ||\r\n                interfaceId == type(IERC165).interfaceId ||\r\n                interfaceId == DoodleNoodles.onERC721Received.selector;\r\n    }\r\n\r\n    // Withdraw function\r\n    function withdraw() public onlyOwner {\r\n        uint256 balance = address(this).balance;\r\n        payable(msg.sender).transfer(balance);\r\n    }\r\n\r\n    function giveAway(address _to, uint256 _qty) external onlyOwner() {\r\n        require( _qty <= (reservedNoodles - goldenNoodles), \"Exceeds reserved Noodles supply\" );\r\n\r\n        uint256 mintSeedValue = numberMinted;\r\n        for(uint256 i = 0; i < _qty; i++) {\r\n            _safeMint(_to, mintSeedValue + i);\r\n            numberMinted ++; \r\n        }\r\n        reservedNoodles -= _qty;\r\n    }\r\n\r\n     function goldenNoodle(address _to, uint256 _qty) external onlyOwner() {\r\n        require( _qty <= goldenNoodles, \"Exceeds reserved Golden Noodles supply\" );\r\n\r\n        uint256 mintSeedValue = numberMinted;\r\n        for(uint256 i = 0; i < _qty; i++) {\r\n            _safeMint(_to, mintSeedValue + i);\r\n            numberMinted ++; \r\n        }\r\n        goldenNoodles -= _qty;\r\n    }\r\n\r\n    function mintNoodle(uint256 qty) external payable reentryLock {\r\n        require(mintActive);\r\n        require((qty + numberMinted + reservedNoodles) < totalNoodles, \"Not enough availability\");\r\n        require(qty <= maxPerTx, \"Exceeds max allowed per transaction\");\r\n        require((_tokensMintedby[_msgSender()] + qty) <= maxPerWallet, \"Exceeds Max allowed per wallet\");\r\n        require(msg.value >= qty * price, \"Insufficient Funds\");\r\n        \r\n        uint256 mintSeedValue = numberMinted; //Store the starting value of the mint batch\r\n\r\n        //Handle ETH transactions\r\n        uint256 cashIn = msg.value;\r\n        uint256 cashChange = cashIn - (qty * price);\r\n\r\n        //send tokens\r\n        for(uint256 i = 0; i < qty; i++) {\r\n            _safeMint(_msgSender(), mintSeedValue + i);\r\n            numberMinted ++;\r\n            _tokensMintedby[_msgSender()] ++;\r\n        }\r\n\r\n        if (cashChange > 0){\r\n            (bool success, ) = msg.sender.call{value: cashChange}(\"\");\r\n            require(success, \"Mint: unable to send change to user\");\r\n        }\r\n    }\r\n    \r\n    function presaleMintNoodle(uint256 qty,\r\n        bytes32 _r,\r\n        bytes32 _s,\r\n        uint8 _v\r\n                        ) external payable onlyValidAccess(_r, _s, _v) reentryLock {\r\n        require(presaleActive);\r\n        require((qty + numberMinted + reservedNoodles) < totalNoodles, \"Not enough availability\");\r\n        require(qty <= maxPerTx, \"Exceeds max allowed per transaction\");\r\n        require((_tokensMintedby[_msgSender()] + qty) <= maxPerWallet, \"Exceeds Max allowed per wallet\");\r\n        require(msg.value >= qty * price, \"Insufficient Funds\");\r\n        \r\n        uint256 mintSeedValue = numberMinted; //Store the starting value of the mint batch\r\n\r\n        //Handle ETH transactions\r\n        uint256 cashIn = msg.value;\r\n        uint256 cashChange = cashIn - (qty * price);\r\n\r\n        //send tokens\r\n        for(uint256 i = 0; i < qty; i++) {\r\n            _safeMint(_msgSender(), mintSeedValue + i);\r\n            numberMinted ++;\r\n            _tokensMintedby[_msgSender()] ++;\r\n        }\r\n\r\n        if (cashChange > 0){\r\n            (bool success, ) = msg.sender.call{value: cashChange}(\"\");\r\n            require(success, \"Mint: unable to send change to user\");\r\n        }\r\n    }\r\n\r\n\r\n    function tokenURI(uint256 tokenId) public view virtual returns (string memory) {\r\n        require(_exists(tokenId),\"ERC721Metadata: URI query for nonexistent token\");\r\n        if(revealed == false) {\r\n        return string(abi.encodePacked(_baseURI, \"0.json\"));\r\n        }\r\n        // Otherwise\r\n        return string(abi.encodePacked(_baseURI, toString(tokenId), \".json\")); \r\n    }\r\n\r\n    function reveal() public onlyOwner {\r\n        revealed = true;\r\n    }\r\n\r\n    function setMaxPerWallet(uint256 maxWallet) external onlyOwner {\r\n        maxPerWallet = maxWallet;\r\n    }\r\n\r\n    function setMaxPerTx(uint256 newMax) external onlyOwner {\r\n        maxPerTx = newMax;\r\n    }\r\n\r\n    function setBaseURI(string memory newURI) public onlyOwner {\r\n        _baseURI = newURI;\r\n    }\r\n\r\n    function activateMint() public onlyOwner {\r\n        mintActive = true;\r\n    }\r\n\r\n     function activatePresale() public onlyOwner {\r\n        presaleActive = true;\r\n    }\r\n\r\n    function deactivateMint() public onlyOwner {\r\n        mintActive = false;\r\n    }\r\n\r\n    function deactivatePresale() public onlyOwner {\r\n        presaleActive = false;\r\n    }\r\n\r\n    function setPrice(uint256 newPrice) public onlyOwner {\r\n        price = newPrice;\r\n    }\r\n\r\n    function setTotalTokens(uint256 numTokens) public onlyOwner {\r\n        totalNoodles = numTokens;\r\n    }\r\n\r\n    function totalSupply() external view returns (uint256) {\r\n        return numberMinted;\r\n    }\r\n\r\n    ///////// required functions\r\n    function getBalance(address tokenAddress) view external returns (uint256) {\r\n        return _balances[tokenAddress];\r\n    }\r\n\r\n    /**\r\n     * @dev See {IERC721-balanceOf}.\r\n     */\r\n    function balanceOf(address owner) public view virtual override returns (uint256) {\r\n        require(owner != address(0), \"ERC721: balance query for the zero address\");\r\n        return _balances[owner];\r\n    }\r\n\r\n    /**\r\n     * @dev See {IERC721-ownerOf}.\r\n     */\r\n    function ownerOf(uint256 tokenId) public view virtual override returns (address) {\r\n        address owner = _owners[tokenId];\r\n        require(owner != address(0), \"ERC721: owner query for nonexistent token\");\r\n        return owner;\r\n    }\r\n\r\n    /**\r\n     * @dev See {IERC721-approve}.\r\n     */\r\n    function approve(address to, uint256 tokenId) public virtual override {\r\n        address owner = ownerOf(tokenId);\r\n        require(to != owner, \"ERC721: approval to current owner\");\r\n\r\n        require(\r\n            msg.sender == owner || isApprovedForAll(owner, msg.sender),\r\n            \"ERC721: approve caller is not owner nor approved for all\"\r\n        );\r\n\r\n        _approve(to, tokenId);\r\n    }\r\n\r\n    /**\r\n     * @dev See {IERC721-getApproved}.\r\n     */\r\n    function getApproved(uint256 tokenId) public view virtual override returns (address) {\r\n        require(_exists(tokenId), \"ERC721: approved query for nonexistent token\");\r\n\r\n        return _tokenApprovals[tokenId];\r\n    }\r\n\r\n    /**\r\n     * @dev See {IERC721-setApprovalForAll}.\r\n     */\r\n    function setApprovalForAll(address operator, bool approved) public virtual override {\r\n        require(operator != msg.sender, \"ERC721: approve to caller\");\r\n\r\n        _operatorApprovals[msg.sender][operator] = approved;\r\n        emit ApprovalForAll(msg.sender, operator, approved);\r\n    }\r\n\r\n    /**\r\n     * @dev See {IERC721-isApprovedForAll}.\r\n     */\r\n    function isApprovedForAll(address owner, address operator) public view virtual override returns (bool) {\r\n        return _operatorApprovals[owner][operator];\r\n    }\r\n\r\n    /**\r\n     * @dev See {IERC721-transferFrom}.\r\n     */\r\n    function transferFrom(\r\n        address from,\r\n        address to,\r\n        uint256 tokenId\r\n    ) public virtual override {\r\n        //solhint-disable-next-line max-line-length\r\n        require(_isApprovedOrOwner(msg.sender, tokenId), \"ERC721: transfer caller is not owner nor approved\");\r\n\r\n        _transfer(from, to, tokenId);\r\n    }\r\n\r\n    /**\r\n     * @dev See {IERC721-safeTransferFrom}.\r\n     */\r\n    function safeTransferFrom(\r\n        address from,\r\n        address to,\r\n        uint256 tokenId\r\n    ) public virtual override {\r\n        safeTransferFrom(from, to, tokenId, \"\");\r\n    }\r\n\r\n    /**\r\n     * @dev See {IERC721-safeTransferFrom}.\r\n     */\r\n    function safeTransferFrom(\r\n        address from,\r\n        address to,\r\n        uint256 tokenId,\r\n        bytes memory _data\r\n    ) public virtual override {\r\n        require(_isApprovedOrOwner(msg.sender, tokenId), \"ERC721: transfer caller is not owner nor approved\");\r\n        _safeTransfer(from, to, tokenId, _data);\r\n    }\r\n\r\n    function _safeTransfer(\r\n        address from,\r\n        address to,\r\n        uint256 tokenId,\r\n        bytes memory _data\r\n    ) internal virtual {\r\n        _transfer(from, to, tokenId);\r\n        require(_checkOnERC721Received(from, to, tokenId, _data), \"ERC721: transfer to non ERC721Receiver implementer\");\r\n    }\r\n\r\n    function _exists(uint256 tokenId) internal view virtual returns (bool) {\r\n        return _owners[tokenId] != address(0);\r\n    }\r\n\r\n    function _isApprovedOrOwner(address spender, uint256 tokenId) internal view virtual returns (bool) {\r\n        require(_exists(tokenId), \"ERC721: operator query for nonexistent token\");\r\n        address owner = ownerOf(tokenId);\r\n        return (spender == owner || getApproved(tokenId) == spender || isApprovedForAll(owner, spender));\r\n    }\r\n\r\n    function _safeMint(address to, uint256 tokenId) internal virtual {\r\n        _safeMint(to, tokenId, \"\");\r\n    }\r\n\r\n    function _safeMint(\r\n        address to,\r\n        uint256 tokenId,\r\n        bytes memory _data\r\n    ) internal virtual {\r\n        _mint(to, tokenId);\r\n        require(\r\n            _checkOnERC721Received(address(0), to, tokenId, _data),\r\n            \"ERC721: transfer to non ERC721Receiver implementer\"\r\n        );\r\n    }\r\n\r\n    function _mint(address to, uint256 tokenId) internal virtual {\r\n        require(to != address(0), \"ERC721: mint to the zero address\");\r\n        require(!_exists(tokenId), \"ERC721: token already minted\");\r\n\r\n        _beforeTokenTransfer(address(0), to, tokenId);\r\n\r\n        _balances[to] += 1;\r\n        _owners[tokenId] = to;\r\n\r\n        emit Transfer(address(0), to, tokenId);\r\n    }\r\n\r\n    function _burn(uint256 tokenId) internal virtual {\r\n        address owner = ownerOf(tokenId);\r\n\r\n        _beforeTokenTransfer(owner, address(0), tokenId);\r\n\r\n        // Clear approvals\r\n        _approve(address(0), tokenId);\r\n\r\n        _balances[owner] -= 1;\r\n        delete _owners[tokenId];\r\n\r\n        emit Transfer(owner, address(0), tokenId);\r\n    }\r\n\r\n    function _transfer(\r\n        address from,\r\n        address to,\r\n        uint256 tokenId\r\n    ) internal virtual {\r\n        require(ownerOf(tokenId) == from, \"ERC721: transfer of token that is not own\");\r\n        require(to != address(0), \"ERC721: transfer to the zero address\");\r\n\r\n        _beforeTokenTransfer(from, to, tokenId);\r\n\r\n        // Clear approvals from the previous owner\r\n        _approve(address(0), tokenId);\r\n\r\n        _balances[from] -= 1;\r\n        _balances[to] += 1;\r\n        _owners[tokenId] = to;\r\n\r\n        emit Transfer(from, to, tokenId);\r\n    }\r\n\r\n    function _approve(address to, uint256 tokenId) internal virtual {\r\n        _tokenApprovals[tokenId] = to;\r\n        emit Approval(ownerOf(tokenId), to, tokenId);\r\n    }\r\n\r\n    function _checkOnERC721Received(\r\n        address from,\r\n        address to,\r\n        uint256 tokenId,\r\n        bytes memory _data\r\n    ) private returns (bool) {\r\n        if (to.isContract()) {\r\n            try IERC721Receiver(to).onERC721Received(msg.sender, from, tokenId, _data) returns (bytes4 retval) {\r\n                return retval == IERC721Receiver(to).onERC721Received.selector;\r\n            } catch (bytes memory reason) {\r\n                if (reason.length == 0) {\r\n                    revert(\"ERC721: transfer to non ERC721Receiver implementer\");\r\n                } else {\r\n                    assembly {\r\n                        revert(add(32, reason), mload(reason))\r\n                    }\r\n                }\r\n            }\r\n        } else {\r\n            return true;\r\n        }\r\n    }\r\n\r\n    function onERC721Received(address _operator, address _from, uint256 _tokenId, bytes calldata _data) external returns(bytes4) {\r\n        //InterfaceID=0x150b7a02\r\n        return this.onERC721Received.selector;\r\n    }\r\n\r\n    function _beforeTokenTransfer(\r\n        address from,\r\n        address to,\r\n        uint256 tokenId\r\n    ) internal virtual {}\r\n\r\n    function name() external view returns (string memory){\r\n        return _name;\r\n    }\r\n\r\n    function symbol() external view returns (string memory){\r\n        return _symbol;\r\n    }\r\n\r\n    function contractURI() public view returns (string memory) {\r\n        return string(abi.encodePacked(_baseURI,\"contract.json\"));\r\n    }\r\n\r\n    //Provenance\r\n    function setProvenanceHash(string calldata hash) public onlyOwner {\r\n        provenanceHash = hash;\r\n    }\r\n    \r\n    function setStartingIndex() public onlyOwner {\r\n        require(startingIndex == 0, \"Starting index is already set\");\r\n        require(startingIndexBlock != 0, \"Starting index block must be set\");\r\n\r\n        startingIndex = uint256(blockhash(startingIndexBlock)) % totalNoodles;\r\n        // Just a sanity case in the worst case if this function is called late (EVM only stores last 256 block hashes)\r\n        if (block.number % startingIndexBlock > 255) {\r\n            startingIndex = uint256(blockhash(block.number - 1)) % totalNoodles;\r\n        }\r\n        // Prevent default sequence\r\n        if (startingIndex == 0) {\r\n            startingIndex = startingIndex + 1;\r\n        }\r\n    }\r\n\r\n    function setStartingIndexBlock() public onlyOwner {\r\n        require(startingIndex == 0, \"Starting index is already set\");\r\n\r\n        startingIndexBlock = block.number;\r\n    }\r\n\r\n    receive() external payable {}\r\n\r\n    fallback() external payable {}\r\n}",
  "sourcePath": "C:\\Users\\callu\\Documents\\React apps\\Doodle Noodles\\contracts\\SmartContract.sol",
  "compiler": {
    "name": "solc",
    "version": "0.8.0+commit.c7dfd78e.Emscripten.clang"
  },
  "schemaVersion": "3.4.4",
  "updatedAt": "2021-12-27T14:46:12.187Z",
  "networkType": "ethereum",
  "devdoc": {
    "kind": "dev",
    "methods": {
      "approve(address,uint256)": {
        "details": "See {IERC721-approve}."
      },
      "balanceOf(address)": {
        "details": "See {IERC721-balanceOf}."
      },
      "getApproved(uint256)": {
        "details": "See {IERC721-getApproved}."
      },
      "isApprovedForAll(address,address)": {
        "details": "See {IERC721-isApprovedForAll}."
      },
      "owner()": {
        "details": "Returns the address of the current owner."
      },
      "ownerOf(uint256)": {
        "details": "See {IERC721-ownerOf}."
      },
      "renounceOwnership()": {
        "details": "Leaves the contract without owner. It will not be possible to call `onlyOwner` functions anymore. Can only be called by the current owner. NOTE: Renouncing ownership will leave the contract without an owner, thereby removing any functionality that is only available to the owner."
      },
      "safeTransferFrom(address,address,uint256)": {
        "details": "See {IERC721-safeTransferFrom}."
      },
      "safeTransferFrom(address,address,uint256,bytes)": {
        "details": "See {IERC721-safeTransferFrom}."
      },
      "setApprovalForAll(address,bool)": {
        "details": "See {IERC721-setApprovalForAll}."
      },
      "transferFrom(address,address,uint256)": {
        "details": "See {IERC721-transferFrom}."
      },
      "transferOwnership(address)": {
        "details": "Transfers ownership of the contract to a new account (`newOwner`). Can only be called by the current owner."
      }
    },
    "version": 1
  },
  "userdoc": {
    "kind": "user",
    "methods": {},
    "notice": "____                        __   ___               __  __                      __   ___                     /\\  _`\\                     /\\ \\ /\\_ \\             /\\ \\/\\ \\                    /\\ \\ /\\_ \\                    \\ \\ \\/\\ \\    ___     ___    \\_\\ \\\\//\\ \\      __    \\ \\ `\\\\ \\    ___     ___    \\_\\ \\\\//\\ \\      __    ____   \\ \\ \\ \\ \\  / __`\\  / __`\\  /'_` \\ \\ \\ \\   /'__`\\   \\ \\ , ` \\  / __`\\  / __`\\  /'_` \\ \\ \\ \\   /'__`\\ /',__\\  \\ \\ \\_\\ \\/\\ \\L\\ \\/\\ \\L\\ \\/\\ \\L\\ \\ \\_\\ \\_/\\  __/    \\ \\ \\`\\ \\/\\ \\L\\ \\/\\ \\L\\ \\/\\ \\L\\ \\ \\_\\ \\_/\\  __//\\__, `\\ \\ \\____/\\ \\____/\\ \\____/\\ \\___,_\\/\\____\\ \\____\\    \\ \\_\\ \\_\\ \\____/\\ \\____/\\ \\___,_\\/\\____\\ \\____\\/\\____/ \\/___/  \\/___/  \\/___/  \\/__,_ /\\/____/\\/____/     \\/_/\\/_/\\/___/  \\/___/  \\/__,_ /\\/____/\\/____/\\/___/                                                                                                     ",
    "version": 1
  }
}