{
  "contractName": "SmartContract",
  "abi": [
    {
      "inputs": [],
      "stateMutability": "nonpayable",
      "type": "constructor"
    },
    {
      "anonymous": false,
      "inputs": [
        {
          "indexed": true,
          "internalType": "address",
          "name": "owner",
          "type": "address"
        },
        {
          "indexed": true,
          "internalType": "address",
          "name": "approved",
          "type": "address"
        },
        {
          "indexed": true,
          "internalType": "uint256",
          "name": "tokenId",
          "type": "uint256"
        }
      ],
      "name": "Approval",
      "type": "event"
    },
    {
      "anonymous": false,
      "inputs": [
        {
          "indexed": true,
          "internalType": "address",
          "name": "owner",
          "type": "address"
        },
        {
          "indexed": true,
          "internalType": "address",
          "name": "operator",
          "type": "address"
        },
        {
          "indexed": false,
          "internalType": "bool",
          "name": "approved",
          "type": "bool"
        }
      ],
      "name": "ApprovalForAll",
      "type": "event"
    },
    {
      "anonymous": false,
      "inputs": [
        {
          "indexed": true,
          "internalType": "address",
          "name": "previousOwner",
          "type": "address"
        },
        {
          "indexed": true,
          "internalType": "address",
          "name": "newOwner",
          "type": "address"
        }
      ],
      "name": "OwnershipTransferred",
      "type": "event"
    },
    {
      "anonymous": false,
      "inputs": [
        {
          "indexed": true,
          "internalType": "address",
          "name": "from",
          "type": "address"
        },
        {
          "indexed": true,
          "internalType": "address",
          "name": "to",
          "type": "address"
        },
        {
          "indexed": true,
          "internalType": "uint256",
          "name": "tokenId",
          "type": "uint256"
        }
      ],
      "name": "Transfer",
      "type": "event"
    },
    {
      "stateMutability": "payable",
      "type": "fallback",
      "payable": true
    },
    {
      "inputs": [
        {
          "internalType": "address",
          "name": "_add",
          "type": "address"
        },
        {
          "internalType": "bytes32",
          "name": "_r",
          "type": "bytes32"
        },
        {
          "internalType": "bytes32",
          "name": "_s",
          "type": "bytes32"
        },
        {
          "internalType": "uint8",
          "name": "_v",
          "type": "uint8"
        }
      ],
      "name": "isValidAccessMessage",
      "outputs": [
        {
          "internalType": "bool",
          "name": "",
          "type": "bool"
        }
      ],
      "stateMutability": "view",
      "type": "function",
      "constant": true
    },
    {
      "inputs": [],
      "name": "maxPerTx",
      "outputs": [
        {
          "internalType": "uint256",
          "name": "",
          "type": "uint256"
        }
      ],
      "stateMutability": "view",
      "type": "function",
      "constant": true
    },
    {
      "inputs": [],
      "name": "maxPerWallet",
      "outputs": [
        {
          "internalType": "uint256",
          "name": "",
          "type": "uint256"
        }
      ],
      "stateMutability": "view",
      "type": "function",
      "constant": true
    },
    {
      "inputs": [],
      "name": "mintActive",
      "outputs": [
        {
          "internalType": "bool",
          "name": "",
          "type": "bool"
        }
      ],
      "stateMutability": "view",
      "type": "function",
      "constant": true
    },
    {
      "inputs": [],
      "name": "numberMinted",
      "outputs": [
        {
          "internalType": "uint256",
          "name": "",
          "type": "uint256"
        }
      ],
      "stateMutability": "view",
      "type": "function",
      "constant": true
    },
    {
      "inputs": [],
      "name": "owner",
      "outputs": [
        {
          "internalType": "address",
          "name": "",
          "type": "address"
        }
      ],
      "stateMutability": "view",
      "type": "function",
      "constant": true
    },
    {
      "inputs": [],
      "name": "owner1",
      "outputs": [
        {
          "internalType": "address",
          "name": "",
          "type": "address"
        }
      ],
      "stateMutability": "view",
      "type": "function",
      "constant": true
    },
    {
      "inputs": [],
      "name": "presaleActive",
      "outputs": [
        {
          "internalType": "bool",
          "name": "",
          "type": "bool"
        }
      ],
      "stateMutability": "view",
      "type": "function",
      "constant": true
    },
    {
      "inputs": [],
      "name": "price",
      "outputs": [
        {
          "internalType": "uint256",
          "name": "",
          "type": "uint256"
        }
      ],
      "stateMutability": "view",
      "type": "function",
      "constant": true
    },
    {
      "inputs": [],
      "name": "renounceOwnership",
      "outputs": [],
      "stateMutability": "nonpayable",
      "type": "function"
    },
    {
      "inputs": [],
      "name": "reservedTokens",
      "outputs": [
        {
          "internalType": "uint256",
          "name": "",
          "type": "uint256"
        }
      ],
      "stateMutability": "view",
      "type": "function",
      "constant": true
    },
    {
      "inputs": [
        {
          "internalType": "address",
          "name": "newAddress",
          "type": "address"
        }
      ],
      "name": "setSignerAddress",
      "outputs": [],
      "stateMutability": "nonpayable",
      "type": "function"
    },
    {
      "inputs": [],
      "name": "signerAddress",
      "outputs": [
        {
          "internalType": "address",
          "name": "",
          "type": "address"
        }
      ],
      "stateMutability": "view",
      "type": "function",
      "constant": true
    },
    {
      "inputs": [],
      "name": "startingIndex",
      "outputs": [
        {
          "internalType": "uint256",
          "name": "",
          "type": "uint256"
        }
      ],
      "stateMutability": "view",
      "type": "function",
      "constant": true
    },
    {
      "inputs": [],
      "name": "startingIndexBlock",
      "outputs": [
        {
          "internalType": "uint256",
          "name": "",
          "type": "uint256"
        }
      ],
      "stateMutability": "view",
      "type": "function",
      "constant": true
    },
    {
      "inputs": [],
      "name": "totalTokens",
      "outputs": [
        {
          "internalType": "uint256",
          "name": "",
          "type": "uint256"
        }
      ],
      "stateMutability": "view",
      "type": "function",
      "constant": true
    },
    {
      "inputs": [
        {
          "internalType": "address",
          "name": "newOwner",
          "type": "address"
        }
      ],
      "name": "transferOwnership",
      "outputs": [],
      "stateMutability": "nonpayable",
      "type": "function"
    },
    {
      "stateMutability": "payable",
      "type": "receive",
      "payable": true
    },
    {
      "inputs": [
        {
          "internalType": "bytes4",
          "name": "interfaceId",
          "type": "bytes4"
        }
      ],
      "name": "supportsInterface",
      "outputs": [
        {
          "internalType": "bool",
          "name": "",
          "type": "bool"
        }
      ],
      "stateMutability": "view",
      "type": "function",
      "constant": true
    },
    {
      "inputs": [],
      "name": "withdraw",
      "outputs": [],
      "stateMutability": "nonpayable",
      "type": "function"
    },
    {
      "inputs": [
        {
          "internalType": "address",
          "name": "_add",
          "type": "address"
        }
      ],
      "name": "getMessageHash",
      "outputs": [
        {
          "internalType": "bytes32",
          "name": "",
          "type": "bytes32"
        }
      ],
      "stateMutability": "view",
      "type": "function",
      "constant": true
    },
    {
      "inputs": [
        {
          "internalType": "bytes32",
          "name": "_messageHash",
          "type": "bytes32"
        }
      ],
      "name": "getETHSignedMessageHash",
      "outputs": [
        {
          "internalType": "bytes32",
          "name": "",
          "type": "bytes32"
        }
      ],
      "stateMutability": "view",
      "type": "function",
      "constant": true
    },
    {
      "inputs": [
        {
          "internalType": "bytes32",
          "name": "_ethSignedMessageHash",
          "type": "bytes32"
        },
        {
          "internalType": "bytes",
          "name": "_signature",
          "type": "bytes"
        }
      ],
      "name": "recoverSigner",
      "outputs": [
        {
          "internalType": "address",
          "name": "",
          "type": "address"
        }
      ],
      "stateMutability": "view",
      "type": "function",
      "constant": true
    },
    {
      "inputs": [
        {
          "internalType": "bytes",
          "name": "_sig",
          "type": "bytes"
        }
      ],
      "name": "splitSignature",
      "outputs": [
        {
          "internalType": "bytes32",
          "name": "r",
          "type": "bytes32"
        },
        {
          "internalType": "bytes32",
          "name": "s",
          "type": "bytes32"
        },
        {
          "internalType": "uint8",
          "name": "v",
          "type": "uint8"
        }
      ],
      "stateMutability": "view",
      "type": "function",
      "constant": true
    },
    {
      "inputs": [
        {
          "internalType": "uint256",
          "name": "qty",
          "type": "uint256"
        }
      ],
      "name": "mint",
      "outputs": [],
      "stateMutability": "payable",
      "type": "function",
      "payable": true
    },
    {
      "inputs": [
        {
          "internalType": "uint256",
          "name": "qty",
          "type": "uint256"
        },
        {
          "internalType": "bytes32",
          "name": "_r",
          "type": "bytes32"
        },
        {
          "internalType": "bytes32",
          "name": "_s",
          "type": "bytes32"
        },
        {
          "internalType": "uint8",
          "name": "_v",
          "type": "uint8"
        }
      ],
      "name": "presaleMint",
      "outputs": [],
      "stateMutability": "payable",
      "type": "function",
      "payable": true
    },
    {
      "inputs": [
        {
          "internalType": "uint256",
          "name": "maxWallet",
          "type": "uint256"
        }
      ],
      "name": "setMaxPerWallet",
      "outputs": [],
      "stateMutability": "nonpayable",
      "type": "function"
    },
    {
      "inputs": [
        {
          "internalType": "uint256",
          "name": "newMax",
          "type": "uint256"
        }
      ],
      "name": "setMaxPerTx",
      "outputs": [],
      "stateMutability": "nonpayable",
      "type": "function"
    },
    {
      "inputs": [
        {
          "internalType": "string",
          "name": "newURI",
          "type": "string"
        }
      ],
      "name": "setBaseURI",
      "outputs": [],
      "stateMutability": "nonpayable",
      "type": "function"
    },
    {
      "inputs": [],
      "name": "activateMint",
      "outputs": [],
      "stateMutability": "nonpayable",
      "type": "function"
    },
    {
      "inputs": [],
      "name": "activatePresale",
      "outputs": [],
      "stateMutability": "nonpayable",
      "type": "function"
    },
    {
      "inputs": [],
      "name": "deactivateMint",
      "outputs": [],
      "stateMutability": "nonpayable",
      "type": "function"
    },
    {
      "inputs": [],
      "name": "deactivatePresale",
      "outputs": [],
      "stateMutability": "nonpayable",
      "type": "function"
    },
    {
      "inputs": [
        {
          "internalType": "uint256",
          "name": "newPrice",
          "type": "uint256"
        }
      ],
      "name": "setPrice",
      "outputs": [],
      "stateMutability": "nonpayable",
      "type": "function"
    },
    {
      "inputs": [
        {
          "internalType": "uint256",
          "name": "numTokens",
          "type": "uint256"
        }
      ],
      "name": "setTotalTokens",
      "outputs": [],
      "stateMutability": "nonpayable",
      "type": "function"
    },
    {
      "inputs": [],
      "name": "totalSupply",
      "outputs": [
        {
          "internalType": "uint256",
          "name": "",
          "type": "uint256"
        }
      ],
      "stateMutability": "view",
      "type": "function",
      "constant": true
    },
    {
      "inputs": [
        {
          "internalType": "address",
          "name": "tokenAddress",
          "type": "address"
        }
      ],
      "name": "getBalance",
      "outputs": [
        {
          "internalType": "uint256",
          "name": "",
          "type": "uint256"
        }
      ],
      "stateMutability": "view",
      "type": "function",
      "constant": true
    },
    {
      "inputs": [
        {
          "internalType": "address",
          "name": "owner",
          "type": "address"
        }
      ],
      "name": "balanceOf",
      "outputs": [
        {
          "internalType": "uint256",
          "name": "",
          "type": "uint256"
        }
      ],
      "stateMutability": "view",
      "type": "function",
      "constant": true
    },
    {
      "inputs": [
        {
          "internalType": "uint256",
          "name": "tokenId",
          "type": "uint256"
        }
      ],
      "name": "ownerOf",
      "outputs": [
        {
          "internalType": "address",
          "name": "",
          "type": "address"
        }
      ],
      "stateMutability": "view",
      "type": "function",
      "constant": true
    },
    {
      "inputs": [
        {
          "internalType": "address",
          "name": "to",
          "type": "address"
        },
        {
          "internalType": "uint256",
          "name": "tokenId",
          "type": "uint256"
        }
      ],
      "name": "approve",
      "outputs": [],
      "stateMutability": "nonpayable",
      "type": "function"
    },
    {
      "inputs": [
        {
          "internalType": "uint256",
          "name": "tokenId",
          "type": "uint256"
        }
      ],
      "name": "getApproved",
      "outputs": [
        {
          "internalType": "address",
          "name": "",
          "type": "address"
        }
      ],
      "stateMutability": "view",
      "type": "function",
      "constant": true
    },
    {
      "inputs": [
        {
          "internalType": "address",
          "name": "operator",
          "type": "address"
        },
        {
          "internalType": "bool",
          "name": "approved",
          "type": "bool"
        }
      ],
      "name": "setApprovalForAll",
      "outputs": [],
      "stateMutability": "nonpayable",
      "type": "function"
    },
    {
      "inputs": [
        {
          "internalType": "address",
          "name": "owner",
          "type": "address"
        },
        {
          "internalType": "address",
          "name": "operator",
          "type": "address"
        }
      ],
      "name": "isApprovedForAll",
      "outputs": [
        {
          "internalType": "bool",
          "name": "",
          "type": "bool"
        }
      ],
      "stateMutability": "view",
      "type": "function",
      "constant": true
    },
    {
      "inputs": [
        {
          "internalType": "address",
          "name": "from",
          "type": "address"
        },
        {
          "internalType": "address",
          "name": "to",
          "type": "address"
        },
        {
          "internalType": "uint256",
          "name": "tokenId",
          "type": "uint256"
        }
      ],
      "name": "transferFrom",
      "outputs": [],
      "stateMutability": "nonpayable",
      "type": "function"
    },
    {
      "inputs": [
        {
          "internalType": "address",
          "name": "from",
          "type": "address"
        },
        {
          "internalType": "address",
          "name": "to",
          "type": "address"
        },
        {
          "internalType": "uint256",
          "name": "tokenId",
          "type": "uint256"
        }
      ],
      "name": "safeTransferFrom",
      "outputs": [],
      "stateMutability": "nonpayable",
      "type": "function"
    },
    {
      "inputs": [
        {
          "internalType": "address",
          "name": "from",
          "type": "address"
        },
        {
          "internalType": "address",
          "name": "to",
          "type": "address"
        },
        {
          "internalType": "uint256",
          "name": "tokenId",
          "type": "uint256"
        },
        {
          "internalType": "bytes",
          "name": "_data",
          "type": "bytes"
        }
      ],
      "name": "safeTransferFrom",
      "outputs": [],
      "stateMutability": "nonpayable",
      "type": "function"
    },
    {
      "inputs": [
        {
          "internalType": "address",
          "name": "_operator",
          "type": "address"
        },
        {
          "internalType": "address",
          "name": "_from",
          "type": "address"
        },
        {
          "internalType": "uint256",
          "name": "_tokenId",
          "type": "uint256"
        },
        {
          "internalType": "bytes",
          "name": "_data",
          "type": "bytes"
        }
      ],
      "name": "onERC721Received",
      "outputs": [
        {
          "internalType": "bytes4",
          "name": "",
          "type": "bytes4"
        }
      ],
      "stateMutability": "nonpayable",
      "type": "function"
    },
    {
      "inputs": [],
      "name": "name",
      "outputs": [
        {
          "internalType": "string",
          "name": "",
          "type": "string"
        }
      ],
      "stateMutability": "view",
      "type": "function",
      "constant": true
    },
    {
      "inputs": [],
      "name": "symbol",
      "outputs": [
        {
          "internalType": "string",
          "name": "",
          "type": "string"
        }
      ],
      "stateMutability": "view",
      "type": "function",
      "constant": true
    },
    {
      "inputs": [
        {
          "internalType": "uint256",
          "name": "tokenId",
          "type": "uint256"
        }
      ],
      "name": "tokenURI",
      "outputs": [
        {
          "internalType": "string",
          "name": "",
          "type": "string"
        }
      ],
      "stateMutability": "view",
      "type": "function",
      "constant": true
    },
    {
      "inputs": [],
      "name": "contractURI",
      "outputs": [
        {
          "internalType": "string",
          "name": "",
          "type": "string"
        }
      ],
      "stateMutability": "view",
      "type": "function",
      "constant": true
    },
    {
      "inputs": [],
      "name": "setStartingIndex",
      "outputs": [],
      "stateMutability": "nonpayable",
      "type": "function"
    },
    {
      "inputs": [],
      "name": "setStartingIndexBlock",
      "outputs": [],
      "stateMutability": "nonpayable",
      "type": "function"
    }
  ],
  "bytecode": "0x60806040526000805460ff60a01b19169055600280546001600160a01b031916735916cbaf66a7bfa2b0f2bf60c05cb16763f051f81790553480156200004457600080fd5b506200005962000053620000f1565b620000f5565b60408051808201909152600e8082526d446f6f646c65204e6f6f646c657360901b6020909201918252620000909160039162000145565b50604080518082019091526005808252644e6f6f647360d81b6020909201918252620000bf9160049162000145565b50600a805461ffff191690556115b3600c55662386f26fc10000600b556005600e819055600f55602860105562000228565b3390565b600080546001600160a01b038381166001600160a01b0319831681178455604051919092169283917f8be0079c531659141344cd1fd0a4f28419497f9722a3daafe3b4186f6b6457e09190a35050565b8280546200015390620001eb565b90600052602060002090601f016020900481019282620001775760008555620001c2565b82601f106200019257805160ff1916838001178555620001c2565b82800160010185558215620001c2579182015b82811115620001c2578251825591602001919060010190620001a5565b50620001d0929150620001d4565b5090565b5b80821115620001d05760008155600101620001d5565b6002810460018216806200020057607f821691505b602082108114156200022257634e487b7160e01b600052602260045260246000fd5b50919050565b61309580620002386000396000f3fe6080604052600436106103035760003560e01c80637e1c0c0911610190578063c6f6f216116100dc578063e36d649811610095578063e98665501161006f578063e98665501461084e578063f2fde38b14610863578063f8b2cb4f14610883578063f968adbe146108a35761030a565b8063e36d649814610804578063e8a3d48514610819578063e985e9c51461082e5761030a565b8063c6f6f21614610765578063c87b56dd14610785578063c91c0462146107a5578063cb774d47146107ba578063d5dc3efd146107cf578063e268e4d3146107e45761030a565b8063a0712d6811610149578063b0b9226311610123578063b0b92263146106f0578063b68e8c9114610710578063b88d4fde14610725578063c1dd27dc146107455761030a565b8063a0712d681461068e578063a22cb465146106a1578063a7bb5803146106c15761030a565b80637e1c0c09146105fa5780638da5cb5b1461060f57806391b7f5ed1461062457806395d89b411461064457806397aba7f914610659578063a035b1fe146106795761030a565b8063290fd8431161024f57806353135ca0116102085780636352211e116101e25780636352211e1461059057806370a08231146105b0578063715018a6146105d057806373688914146105e55761030a565b806353135ca01461054657806355f804b31461055b5780635b7633d01461057b5761030a565b8063290fd843146104bd5780632e56f71e146104d25780633ccfd60b146104e757806342842e0e146104fc578063453c23101461051c57806349a772b5146105315761030a565b8063150b7a02116102bc57806318160ddd1161029657806318160ddd146104535780631f5ac1b21461046857806323b872dd1461048857806325fd90f3146104a85761030a565b8063150b7a02146103fe57806315a553471461042b5780631749dc26146104405761030a565b806301ffc9a71461030c578063046dc1661461034257806306fdde0314610362578063081812fc14610384578063095ea7b3146103b15780630d7b475d146103d15761030a565b3661030a57005b005b34801561031857600080fd5b5061032c6103273660046124b2565b6108b8565b604051610339919061277e565b60405180910390f35b34801561034e57600080fd5b5061030a61035d36600461222a565b610927565b34801561036e57600080fd5b50610377610991565b60405161033991906127de565b34801561039057600080fd5b506103a461039f366004612455565b610a23565b6040516103399190612713565b3480156103bd57600080fd5b5061030a6103cc36600461242c565b610a66565b3480156103dd57600080fd5b506103f16103ec366004612455565b610aec565b6040516103399190612789565b34801561040a57600080fd5b5061041e6104193660046122b1565b610b5b565b60405161033991906127c9565b34801561043757600080fd5b506103f1610b6c565b61030a61044e366004612563565b610b72565b34801561045f57600080fd5b506103f1610dde565b34801561047457600080fd5b506103f161048336600461222a565b610de4565b34801561049457600080fd5b5061030a6104a3366004612276565b610e3f565b3480156104b457600080fd5b5061032c610e70565b3480156104c957600080fd5b5061030a610e79565b3480156104de57600080fd5b5061030a610ec5565b3480156104f357600080fd5b5061030a610f10565b34801561050857600080fd5b5061030a610517366004612276565b610f82565b34801561052857600080fd5b506103f1610f9d565b34801561053d57600080fd5b506103f1610fa3565b34801561055257600080fd5b5061032c610fa9565b34801561056757600080fd5b5061030a61057636600461251d565b610fb7565b34801561058757600080fd5b506103a4611009565b34801561059c57600080fd5b506103a46105ab366004612455565b611018565b3480156105bc57600080fd5b506103f16105cb36600461222a565b61104d565b3480156105dc57600080fd5b5061030a611091565b3480156105f157600080fd5b506103a46110dc565b34801561060657600080fd5b506103f16110eb565b34801561061b57600080fd5b506103a46110f1565b34801561063057600080fd5b5061030a61063f366004612455565b611100565b34801561065057600080fd5b50610377611144565b34801561066557600080fd5b506103a461067436600461246d565b611153565b34801561068557600080fd5b506103f1611202565b61030a61069c366004612455565b611208565b3480156106ad57600080fd5b5061030a6106bc3660046123ad565b611464565b3480156106cd57600080fd5b506106e16106dc3660046124ea565b6114fc565b60405161033993929190612792565b3480156106fc57600080fd5b5061030a61070b366004612455565b61157f565b34801561071c57600080fd5b5061030a6115c3565b34801561073157600080fd5b5061030a610740366004612347565b611613565b34801561075157600080fd5b5061032c6107603660046123e7565b61164b565b34801561077157600080fd5b5061030a610780366004612455565b611752565b34801561079157600080fd5b506103776107a0366004612455565b611796565b3480156107b157600080fd5b5061030a6117ef565b3480156107c657600080fd5b506103f161183d565b3480156107db57600080fd5b5061030a611843565b3480156107f057600080fd5b5061030a6107ff366004612455565b6118a8565b34801561081057600080fd5b506103f16118ec565b34801561082557600080fd5b506103776118f2565b34801561083a57600080fd5b5061032c610849366004612244565b61191a565b34801561085a57600080fd5b5061030a611948565b34801561086f57600080fd5b5061030a61087e36600461222a565b611a27565b34801561088f57600080fd5b506103f161089e36600461222a565b611a98565b3480156108af57600080fd5b506103f1611ab3565b60006001600160e01b031982166380ac58cd60e01b14806108e957506001600160e01b03198216635b5e139f60e01b145b8061090457506001600160e01b031982166301ffc9a760e01b145b8061091f57506001600160e01b03198216630a85bd0160e11b145b90505b919050565b61092f611ab9565b6001600160a01b03166109406110f1565b6001600160a01b03161461096f5760405162461bcd60e51b815260040161096690612c4a565b60405180910390fd5b600180546001600160a01b0319166001600160a01b0392909216919091179055565b6060600380546109a090612f9d565b80601f01602080910402602001604051908101604052809291908181526020018280546109cc90612f9d565b8015610a195780601f106109ee57610100808354040283529160200191610a19565b820191906000526020600020905b8154815290600101906020018083116109fc57829003601f168201915b5050505050905090565b6000610a2e82611abd565b610a4a5760405162461bcd60e51b815260040161096690612bfe565b506000908152600860205260409020546001600160a01b031690565b6000610a7182611018565b9050806001600160a01b0316836001600160a01b03161415610aa55760405162461bcd60e51b815260040161096690612dbc565b336001600160a01b0382161480610ac15750610ac1813361191a565b610add5760405162461bcd60e51b815260040161096690612ad9565b610ae78383611ada565b505050565b6000610af6611ab9565b6001600160a01b0316610b076110f1565b6001600160a01b031614610b2d5760405162461bcd60e51b815260040161096690612c4a565b81604051602001610b3e91906126df565b604051602081830303815290604052805190602001209050919050565b630a85bd0160e11b95945050505050565b60105481565b828282610b813384848461164b565b610b8a57600080fd5b600054600160a01b900460ff1615610bb45760405162461bcd60e51b815260040161096690612a95565b6000805460ff60a01b1916600160a01b179055600a54610100900460ff16610bdb57600080fd5b600f548760136000610beb611ab9565b6001600160a01b03166001600160a01b0316815260200190815260200160002054610c169190612f0f565b1115610c345760405162461bcd60e51b815260040161096690612834565b600c54600d54601054610c47908a612f0f565b610c519190612f0f565b10610c6e5760405162461bcd60e51b815260040161096690612c7f565b600b54610c7b9088612f3b565b341015610c9a5760405162461bcd60e51b815260040161096690612cb6565b600d54600b543490600090610caf908b612f3b565b610cb99083612f5a565b905060005b8a811015610d4057610ce0610cd1611ab9565b610cdb8387612f0f565b611b48565b600d8054906000610cf083612fd8565b919050555060136000610d01611ab9565b6001600160a01b0316815260208101919091526040016000908120805491610d2883612fd8565b91905055508080610d3890612fd8565b915050610cbe565b508015610dc5576000336001600160a01b031682604051610d6090612710565b60006040518083038185875af1925050503d8060008114610d9d576040519150601f19603f3d011682016040523d82523d6000602084013e610da2565b606091505b5050905080610dc35760405162461bcd60e51b8152600401610966906127f1565b505b50506000805460ff60a01b191690555050505050505050565b600d5490565b6000610dee611ab9565b6001600160a01b0316610dff6110f1565b6001600160a01b031614610e255760405162461bcd60e51b815260040161096690612c4a565b610e2d6110f1565b82604051602001610b3e929190612727565b610e493382611b62565b610e655760405162461bcd60e51b815260040161096690612e32565b610ae7838383611bdf565b600a5460ff1681565b610e81611ab9565b6001600160a01b0316610e926110f1565b6001600160a01b031614610eb85760405162461bcd60e51b815260040161096690612c4a565b600a805461ff0019169055565b610ecd611ab9565b6001600160a01b0316610ede6110f1565b6001600160a01b031614610f045760405162461bcd60e51b815260040161096690612c4a565b600a805460ff19169055565b610f18611ab9565b6001600160a01b0316610f296110f1565b6001600160a01b031614610f4f5760405162461bcd60e51b815260040161096690612c4a565b6040514790339082156108fc029083906000818181858888f19350505050158015610f7e573d6000803e3d6000fd5b5050565b610ae783838360405180602001604052806000815250611613565b600e5481565b600d5481565b600a54610100900460ff1681565b610fbf611ab9565b6001600160a01b0316610fd06110f1565b6001600160a01b031614610ff65760405162461bcd60e51b815260040161096690612c4a565b8051610f7e9060059060208401906120d3565b6001546001600160a01b031681565b6000818152600660205260408120546001600160a01b03168061091f5760405162461bcd60e51b815260040161096690612b80565b60006001600160a01b0382166110755760405162461bcd60e51b815260040161096690612b36565b506001600160a01b031660009081526007602052604090205490565b611099611ab9565b6001600160a01b03166110aa6110f1565b6001600160a01b0316146110d05760405162461bcd60e51b815260040161096690612c4a565b6110da6000611d0c565b565b6002546001600160a01b031681565b600c5481565b6000546001600160a01b031690565b611108611ab9565b6001600160a01b03166111196110f1565b6001600160a01b03161461113f5760405162461bcd60e51b815260040161096690612c4a565b600b55565b6060600480546109a090612f9d565b600061115d611ab9565b6001600160a01b031661116e6110f1565b6001600160a01b0316146111945760405162461bcd60e51b815260040161096690612c4a565b60008060006111a2856114fc565b925092509250600186828585604051600081526020016040526040516111cb94939291906127ab565b6020604051602081039080840390855afa1580156111ed573d6000803e3d6000fd5b5050604051601f190151979650505050505050565b600b5481565b600054600160a01b900460ff16156112325760405162461bcd60e51b815260040161096690612a95565b6000805460ff60a01b1916600160a01b179055600a5460ff1661125457600080fd5b600c54600d546010546112679084612f0f565b6112719190612f0f565b1061128e5760405162461bcd60e51b815260040161096690612c7f565b600f548111156112b05760405162461bcd60e51b815260040161096690612e83565b600e5481601360006112c0611ab9565b6001600160a01b03166001600160a01b03168152602001908152602001600020546112eb9190612f0f565b11156113095760405162461bcd60e51b815260040161096690612953565b600b546113169082612f3b565b3410156113355760405162461bcd60e51b815260040161096690612cb6565b600d54600b54349060009061134a9085612f3b565b6113549083612f5a565b905060005b848110156113cc5761136c610cd1611ab9565b600d805490600061137c83612fd8565b91905055506013600061138d611ab9565b6001600160a01b03168152602081019190915260400160009081208054916113b483612fd8565b919050555080806113c490612fd8565b915050611359565b508015611451576000336001600160a01b0316826040516113ec90612710565b60006040518083038185875af1925050503d8060008114611429576040519150601f19603f3d011682016040523d82523d6000602084013e61142e565b606091505b505090508061144f5760405162461bcd60e51b8152600401610966906127f1565b505b50506000805460ff60a01b191690555050565b6001600160a01b03821633141561148d5760405162461bcd60e51b8152600401610966906129db565b3360008181526009602090815260408083206001600160a01b038716808552925291829020805460ff191685151517905590519091907f17307eab39ab6107e8899845ad3d59bd9653f200f220920489ca2b5937696c31906114f090859061277e565b60405180910390a35050565b6000806000611509611ab9565b6001600160a01b031661151a6110f1565b6001600160a01b0316146115405760405162461bcd60e51b815260040161096690612c4a565b83516041146115615760405162461bcd60e51b815260040161096690612ecc565b50505060208101516040820151606090920151909260009190911a90565b611587611ab9565b6001600160a01b03166115986110f1565b6001600160a01b0316146115be5760405162461bcd60e51b815260040161096690612c4a565b600c55565b6115cb611ab9565b6001600160a01b03166115dc6110f1565b6001600160a01b0316146116025760405162461bcd60e51b815260040161096690612c4a565b600a805461ff001916610100179055565b61161d3383611b62565b6116395760405162461bcd60e51b815260040161096690612e32565b61164584848484611d5c565b50505050565b600254604051600091829161166e916001600160a01b031690889060200161265a565b60405160208183030381529060405280519060200120905060008160405160200161169991906126df565b6040516020818303038152906040528051906020012090506000600182868989604051600081526020016040526040516116d694939291906127ab565b6020604051602081039080840390855afa1580156116f8573d6000803e3d6000fd5b5050604051601f1901516001549092506001600160a01b0380841691161490506117345760405162461bcd60e51b815260040161096690612d85565b6001546001600160a01b03908116911614925050505b949350505050565b61175a611ab9565b6001600160a01b031661176b6110f1565b6001600160a01b0316146117915760405162461bcd60e51b815260040161096690612c4a565b600f55565b60606117a182611abd565b6117bd5760405162461bcd60e51b815260040161096690612d36565b60056117c883611d8f565b6040516020016117d9929190612681565b6040516020818303038152906040529050919050565b6117f7611ab9565b6001600160a01b03166118086110f1565b6001600160a01b03161461182e5760405162461bcd60e51b815260040161096690612c4a565b600a805460ff19166001179055565b60115481565b61184b611ab9565b6001600160a01b031661185c6110f1565b6001600160a01b0316146118825760405162461bcd60e51b815260040161096690612c4a565b601154156118a25760405162461bcd60e51b815260040161096690612a5e565b43601255565b6118b0611ab9565b6001600160a01b03166118c16110f1565b6001600160a01b0316146118e75760405162461bcd60e51b815260040161096690612c4a565b600e55565b60125481565b6060600560405160200161190691906126b6565b604051602081830303815290604052905090565b6001600160a01b03918216600090815260096020908152604080832093909416825291909152205460ff1690565b611950611ab9565b6001600160a01b03166119616110f1565b6001600160a01b0316146119875760405162461bcd60e51b815260040161096690612c4a565b601154156119a75760405162461bcd60e51b815260040161096690612a5e565b6012546119c65760405162461bcd60e51b815260040161096690612dfd565b600c546012546119d7919040612ff3565b60115560125460ff906119ea9043612ff3565b1115611a0d57600c546119fe600143612f5a565b611a09919040612ff3565b6011555b6011546110da57601154611a22906001612f0f565b601155565b611a2f611ab9565b6001600160a01b0316611a406110f1565b6001600160a01b031614611a665760405162461bcd60e51b815260040161096690612c4a565b6001600160a01b038116611a8c5760405162461bcd60e51b8152600401610966906128d6565b611a9581611d0c565b50565b6001600160a01b031660009081526007602052604090205490565b600f5481565b3390565b6000908152600660205260409020546001600160a01b0316151590565b600081815260086020526040902080546001600160a01b0319166001600160a01b0384169081179091558190611b0f82611018565b6001600160a01b03167f8c5be1e5ebec7d5bd14f71427d1e84f3dd0314c0f7b2291e5b200ac8c7c3b92560405160405180910390a45050565b610f7e828260405180602001604052806000815250611eaa565b6000611b6d82611abd565b611b895760405162461bcd60e51b815260040161096690612a12565b6000611b9483611018565b9050806001600160a01b0316846001600160a01b03161480611bcf5750836001600160a01b0316611bc484610a23565b6001600160a01b0316145b8061174a575061174a818561191a565b826001600160a01b0316611bf282611018565b6001600160a01b031614611c185760405162461bcd60e51b815260040161096690612ced565b6001600160a01b038216611c3e5760405162461bcd60e51b815260040161096690612997565b611c49838383610ae7565b611c54600082611ada565b6001600160a01b0383166000908152600760205260408120805460019290611c7d908490612f5a565b90915550506001600160a01b0382166000908152600760205260408120805460019290611cab908490612f0f565b909155505060008181526006602052604080822080546001600160a01b0319166001600160a01b0386811691821790925591518493918716917fddf252ad1be2c89b69c2b068fc378daa952ba7f163c4a11628f55a4df523b3ef91a4505050565b600080546001600160a01b038381166001600160a01b0319831681178455604051919092169283917f8be0079c531659141344cd1fd0a4f28419497f9722a3daafe3b4186f6b6457e09190a35050565b611d67848484611bdf565b611d7384848484611edd565b6116455760405162461bcd60e51b815260040161096690612884565b606081611db457506040805180820190915260018152600360fc1b6020820152610922565b8160005b8115611dde5780611dc881612fd8565b9150611dd79050600a83612f27565b9150611db8565b60008167ffffffffffffffff811115611e0757634e487b7160e01b600052604160045260246000fd5b6040519080825280601f01601f191660200182016040528015611e31576020820181803683370190505b5090505b841561174a57611e46600183612f5a565b9150611e53600a86612ff3565b611e5e906030612f0f565b60f81b818381518110611e8157634e487b7160e01b600052603260045260246000fd5b60200101906001600160f81b031916908160001a905350611ea3600a86612f27565b9450611e35565b611eb48383611fee565b611ec16000848484611edd565b610ae75760405162461bcd60e51b815260040161096690612884565b6000611ef1846001600160a01b03166120cd565b15611fe657604051630a85bd0160e11b81526001600160a01b0385169063150b7a0290611f28903390899088908890600401612741565b602060405180830381600087803b158015611f4257600080fd5b505af1925050508015611f72575060408051601f3d908101601f19168201909252611f6f918101906124ce565b60015b611fcc573d808015611fa0576040519150601f19603f3d011682016040523d82523d6000602084013e611fa5565b606091505b508051611fc45760405162461bcd60e51b815260040161096690612884565b805181602001fd5b6001600160e01b031916630a85bd0160e11b14905061174a565b50600161174a565b6001600160a01b0382166120145760405162461bcd60e51b815260040161096690612bc9565b61201d81611abd565b1561203a5760405162461bcd60e51b81526004016109669061291c565b61204660008383610ae7565b6001600160a01b038216600090815260076020526040812080546001929061206f908490612f0f565b909155505060008181526006602052604080822080546001600160a01b0319166001600160a01b03861690811790915590518392907fddf252ad1be2c89b69c2b068fc378daa952ba7f163c4a11628f55a4df523b3ef908290a45050565b3b151590565b8280546120df90612f9d565b90600052602060002090601f0160209004810192826121015760008555612147565b82601f1061211a57805160ff1916838001178555612147565b82800160010185558215612147579182015b8281111561214757825182559160200191906001019061212c565b50612153929150612157565b5090565b5b808211156121535760008155600101612158565b600067ffffffffffffffff8084111561218757612187613033565b604051601f8501601f1916810160200182811182821017156121ab576121ab613033565b6040528481529150818385018610156121c357600080fd5b8484602083013760006020868301015250509392505050565b80356001600160a01b038116811461092257600080fd5b600082601f830112612203578081fd5b6122128383356020850161216c565b9392505050565b803560ff8116811461092257600080fd5b60006020828403121561223b578081fd5b612212826121dc565b60008060408385031215612256578081fd5b61225f836121dc565b915061226d602084016121dc565b90509250929050565b60008060006060848603121561228a578081fd5b612293846121dc565b92506122a1602085016121dc565b9150604084013590509250925092565b6000806000806000608086880312156122c8578081fd5b6122d1866121dc565b94506122df602087016121dc565b935060408601359250606086013567ffffffffffffffff80821115612302578283fd5b818801915088601f830112612315578283fd5b813581811115612323578384fd5b896020828501011115612334578384fd5b9699959850939650602001949392505050565b6000806000806080858703121561235c578384fd5b612365856121dc565b9350612373602086016121dc565b925060408501359150606085013567ffffffffffffffff811115612395578182fd5b6123a1878288016121f3565b91505092959194509250565b600080604083850312156123bf578182fd5b6123c8836121dc565b9150602083013580151581146123dc578182fd5b809150509250929050565b600080600080608085870312156123fc578384fd5b612405856121dc565b9350602085013592506040850135915061242160608601612219565b905092959194509250565b6000806040838503121561243e578182fd5b612447836121dc565b946020939093013593505050565b600060208284031215612466578081fd5b5035919050565b6000806040838503121561247f578182fd5b82359150602083013567ffffffffffffffff81111561249c578182fd5b6124a8858286016121f3565b9150509250929050565b6000602082840312156124c3578081fd5b813561221281613049565b6000602082840312156124df578081fd5b815161221281613049565b6000602082840312156124fb578081fd5b813567ffffffffffffffff811115612511578182fd5b61174a848285016121f3565b60006020828403121561252e578081fd5b813567ffffffffffffffff811115612544578182fd5b8201601f81018413612554578182fd5b61174a8482356020840161216c565b60008060008060808587031215612578578182fd5b84359350602085013592506040850135915061242160608601612219565b600081518084526125ae816020860160208601612f71565b601f01601f19169290920160200192915050565b8054600090600281046001808316806125dc57607f831692505b60208084108214156125fc57634e487b7160e01b86526022600452602486fd5b81801561261057600181146126215761264e565b60ff1986168952848901965061264e565b61262a88612f03565b60005b868110156126465781548b82015290850190830161262d565b505084890196505b50505050505092915050565b6bffffffffffffffffffffffff19606093841b811682529190921b16601482015260280190565b600061268d82856125c2565b835161269d818360208801612f71565b64173539b7b760d91b9101908152600501949350505050565b60006126c282846125c2565b6c31b7b73a3930b1ba173539b7b760991b8152600d019392505050565b7f19457468657265756d205369676e6564204d6573736167653a0a3332000000008152601c810191909152603c0190565b90565b6001600160a01b0391909116815260200190565b6001600160a01b0392831681529116602082015260400190565b6001600160a01b038581168252841660208201526040810183905260806060820181905260009061277490830184612596565b9695505050505050565b901515815260200190565b90815260200190565b928352602083019190915260ff16604082015260600190565b93845260ff9290921660208401526040830152606082015260800190565b6001600160e01b031991909116815260200190565b6000602082526122126020830184612596565b60208082526023908201527f4d696e743a20756e61626c6520746f2073656e64206368616e676520746f207560408201526239b2b960e91b606082015260800190565b60208082526030908201527f50726573616c65204d696e743a204d617820746f6b656e7320647572696e672060408201526f1c1c995cd85b1948195e18d95959195960821b606082015260800190565b60208082526032908201527f4552433732313a207472616e7366657220746f206e6f6e20455243373231526560408201527131b2b4bb32b91034b6b83632b6b2b73a32b960711b606082015260800190565b60208082526026908201527f4f776e61626c653a206e6577206f776e657220697320746865207a65726f206160408201526564647265737360d01b606082015260800190565b6020808252601c908201527f4552433732313a20746f6b656e20616c7265616479206d696e74656400000000604082015260600190565b60208082526024908201527f4d696e743a204d617820746f6b656e73207065722077616c6c657420657863656040820152631959195960e21b606082015260800190565b60208082526024908201527f4552433732313a207472616e7366657220746f20746865207a65726f206164646040820152637265737360e01b606082015260800190565b60208082526019908201527f4552433732313a20617070726f766520746f2063616c6c657200000000000000604082015260600190565b6020808252602c908201527f4552433732313a206f70657261746f7220717565727920666f72206e6f6e657860408201526b34b9ba32b73a103a37b5b2b760a11b606082015260800190565b6020808252601d908201527f5374617274696e6720696e64657820697320616c726561647920736574000000604082015260600190565b60208082526024908201527f617474656d707420746f207265656e7465722061206c6f636b65642066756e636040820152633a34b7b760e11b606082015260800190565b60208082526038908201527f4552433732313a20617070726f76652063616c6c6572206973206e6f74206f7760408201527f6e6572206e6f7220617070726f76656420666f7220616c6c0000000000000000606082015260800190565b6020808252602a908201527f4552433732313a2062616c616e636520717565727920666f7220746865207a65604082015269726f206164647265737360b01b606082015260800190565b60208082526029908201527f4552433732313a206f776e657220717565727920666f72206e6f6e657869737460408201526832b73a103a37b5b2b760b91b606082015260800190565b6020808252818101527f4552433732313a206d696e7420746f20746865207a65726f2061646472657373604082015260600190565b6020808252602c908201527f4552433732313a20617070726f76656420717565727920666f72206e6f6e657860408201526b34b9ba32b73a103a37b5b2b760a11b606082015260800190565b6020808252818101527f4f776e61626c653a2063616c6c6572206973206e6f7420746865206f776e6572604082015260600190565b6020808252601d908201527f4d696e743a204e6f7420656e6f75676820617661696c6162696c697479000000604082015260600190565b60208082526018908201527f4d696e743a20496e73756666696369656e742046756e64730000000000000000604082015260600190565b60208082526029908201527f4552433732313a207472616e73666572206f6620746f6b656e2074686174206960408201526839903737ba1037bbb760b91b606082015260800190565b6020808252602f908201527f4552433732314d657461646174613a2055524920717565727920666f72206e6f60408201526e3732bc34b9ba32b73a103a37b5b2b760891b606082015260800190565b60208082526018908201527f5369676e617475726520646f6573206e6f74206d617463680000000000000000604082015260600190565b60208082526021908201527f4552433732313a20617070726f76616c20746f2063757272656e74206f776e656040820152603960f91b606082015260800190565b6020808252818101527f5374617274696e6720696e64657820626c6f636b206d75737420626520736574604082015260600190565b60208082526031908201527f4552433732313a207472616e736665722063616c6c6572206973206e6f74206f6040820152701ddb995c881b9bdc88185c1c1c9bdd9959607a1b606082015260800190565b60208082526029908201527f4d696e743a204d617820746f6b656e7320706572207472616e73616374696f6e60408201526808195e18d95959195960ba1b606082015260800190565b60208082526018908201527f696e76616c6964207369676e6174757265206c656e6774680000000000000000604082015260600190565b60009081526020902090565b60008219821115612f2257612f22613007565b500190565b600082612f3657612f3661301d565b500490565b6000816000190483118215151615612f5557612f55613007565b500290565b600082821015612f6c57612f6c613007565b500390565b60005b83811015612f8c578181015183820152602001612f74565b838111156116455750506000910152565b600281046001821680612fb157607f821691505b60208210811415612fd257634e487b7160e01b600052602260045260246000fd5b50919050565b6000600019821415612fec57612fec613007565b5060010190565b6000826130025761300261301d565b500690565b634e487b7160e01b600052601160045260246000fd5b634e487b7160e01b600052601260045260246000fd5b634e487b7160e01b600052604160045260246000fd5b6001600160e01b031981168114611a9557600080fdfea26469706673582212209af5b656817e958cdce852a2e2c569c5fa4cfa97d81239322aec7f61c792435c64736f6c63430008000033",
  "immutableReferences": {},
  "source": "// SPDX-License-Identifier: MIT\r\n\r\npragma solidity ^0.8.0;\r\n\r\n/*\r\n Fully commented standard ERC721 Distilled from OpenZeppelin Docs\r\n Base for Building ERC721 by Martin McConnell\r\n All the utility without the fluff.\r\n*/\r\n\r\n\r\ninterface IERC165 {\r\n function supportsInterface(bytes4 interfaceId) external view returns (bool);\r\n}\r\n\r\n\r\n// File contracts/IERC721.sol\r\n\r\npragma solidity ^0.8.0;\r\n\r\ninterface IERC721 is IERC165 {\r\n //@dev Emitted when `tokenId` token is transferred from `from` to `to`.\r\n event Transfer(address indexed from, address indexed to, uint256 indexed tokenId);\r\n\r\n //@dev Emitted when `owner` enables `approved` to manage the `tokenId` token.\r\n event Approval(address indexed owner, address indexed approved, uint256 indexed tokenId);\r\n\r\n //@dev Emitted when `owner` enables or disables (`approved`) `operator` to manage all of its assets.\r\n event ApprovalForAll(address indexed owner, address indexed operator, bool approved);\r\n\r\n //@dev Returns the number of tokens in ``owner``'s account.\r\n function balanceOf(address owner) external view returns (uint256 balance);\r\n\r\n /**\r\n * @dev Returns the owner of the `tokenId` token.\r\n *\r\n * Requirements:\r\n *\r\n * - `tokenId` must exist.\r\n */\r\n function ownerOf(uint256 tokenId) external view returns (address owner);\r\n\r\n /**\r\n * @dev Safely transfers `tokenId` token from `from` to `to`, checking first that contract recipients\r\n * are aware of the ERC721 protocol to prevent tokens from being forever locked.\r\n *\r\n * Requirements:\r\n *\r\n * - `from` cannot be the zero address.\r\n * - `to` cannot be the zero address.\r\n * - `tokenId` token must exist and be owned by `from`.\r\n * - If the caller is not `from`, it must be have been allowed to move this token by either {approve} or {setApprovalForAll}.\r\n * - If `to` refers to a smart contract, it must implement {IERC721Receiver-onERC721Received}, which is called upon a safe transfer.\r\n *\r\n * Emits a {Transfer} event.\r\n */\r\n function safeTransferFrom(address from,address to,uint256 tokenId) external;\r\n\r\n /**\r\n * @dev Transfers `tokenId` token from `from` to `to`.\r\n *\r\n * WARNING: Usage of this method is discouraged, use {safeTransferFrom} whenever possible.\r\n *\r\n * Requirements:\r\n *\r\n * - `from` cannot be the zero address.\r\n * - `to` cannot be the zero address.\r\n * - `tokenId` token must be owned by `from`.\r\n * - If the caller is not `from`, it must be approved to move this token by either {approve} or {setApprovalForAll}.\r\n *\r\n * Emits a {Transfer} event.\r\n */\r\n function transferFrom(address from, address to, uint256 tokenId) external;\r\n\r\n /**\r\n * @dev Gives permission to `to` to transfer `tokenId` token to another account.\r\n * The approval is cleared when the token is transferred.\r\n *\r\n * Only a single account can be approved at a time, so approving the zero address clears previous approvals.\r\n *\r\n * Requirements:\r\n *\r\n * - The caller must own the token or be an approved operator.\r\n * - `tokenId` must exist.\r\n *\r\n * Emits an {Approval} event.\r\n */\r\n function approve(address to, uint256 tokenId) external;\r\n\r\n /**\r\n * @dev Returns the account approved for `tokenId` token.\r\n *\r\n * Requirements:\r\n *\r\n * - `tokenId` must exist.\r\n */\r\n function getApproved(uint256 tokenId) external view returns (address operator);\r\n\r\n /**\r\n * @dev Approve or remove `operator` as an operator for the caller.\r\n * Operators can call {transferFrom} or {safeTransferFrom} for any token owned by the caller.\r\n *\r\n * Requirements:\r\n * - The `operator` cannot be the caller.\r\n *\r\n * Emits an {ApprovalForAll} event.\r\n */\r\n function setApprovalForAll(address operator, bool _approved) external;\r\n\r\n //@dev Returns if the `operator` is allowed to manage all of the assets of `owner`.\r\n function isApprovedForAll(address owner, address operator) external view returns (bool);\r\n\r\n /**\r\n * @dev Safely transfers `tokenId` token from `from` to `to`.\r\n *\r\n * Requirements:\r\n *\r\n * - `from` cannot be the zero address.\r\n * - `to` cannot be the zero address.\r\n * - `tokenId` token must exist and be owned by `from`.\r\n * - If the caller is not `from`, it must be approved to move this token by either {approve} or {setApprovalForAll}.\r\n * - If `to` refers to a smart contract, it must implement {IERC721Receiver-onERC721Received}, which is called upon a safe transfer.\r\n *\r\n * Emits a {Transfer} event.\r\n */\r\n function safeTransferFrom(address from, address to, uint256 tokenId, bytes calldata data) external;\r\n}\r\n\r\n\r\n// File contracts/IERC721Receiver.sol\r\n\r\npragma solidity ^0.8.0;\r\ninterface IERC721Receiver {\r\n /**\r\n * @dev Whenever an {IERC721} `tokenId` token is transferred to this contract via {IERC721-safeTransferFrom}\r\n * by `operator` from `from`, this function is called.\r\n *\r\n * It must return its Solidity selector to confirm the token transfer.\r\n * If any other value is returned or the interface is not implemented by the recipient, the transfer will be reverted.\r\n *\r\n * The selector can be obtained in Solidity with `IERC721.onERC721Received.selector`.\r\n */\r\n function onERC721Received(address operator, address from, uint256 tokenId, bytes calldata data) external returns (bytes4);\r\n}\r\n\r\n\r\n// File contracts/IERC721Metadata.sol\r\n\r\npragma solidity ^0.8.0;\r\n\r\ninterface IERC721Metadata is IERC721 {\r\n //@dev Returns the token collection name.\r\n function name() external view returns (string memory);\r\n\r\n //@dev Returns the token collection symbol.\r\n function symbol() external view returns (string memory);\r\n\r\n //@dev Returns the Uniform Resource Identifier (URI) for `tokenId` token.\r\n function tokenURI(uint256 tokenId) external view returns (string memory);\r\n}\r\n\r\n\r\n// File contracts/Context.sol\r\n\r\npragma solidity ^0.8.0;\r\n\r\n\r\n\r\nabstract contract Context {\r\n function _msgSender() internal view virtual returns (address) {\r\n return msg.sender;\r\n }\r\n\r\n function _msgData() internal view virtual returns (bytes calldata) {\r\n return msg.data;\r\n }\r\n}\r\n\r\n\r\n// File contracts/Ownable.sol\r\n\r\npragma solidity ^0.8.0;\r\n\r\nabstract contract Ownable is Context {\r\n address private _owner;\r\n\r\n event OwnershipTransferred(address indexed previousOwner, address indexed newOwner);\r\n\r\n /**\r\n * @dev Initializes the contract setting the deployer as the initial owner.\r\n */\r\n constructor() {\r\n _setOwner(_msgSender());\r\n }\r\n\r\n /**\r\n * @dev Returns the address of the current owner.\r\n */\r\n function owner() public view virtual returns (address) {\r\n return _owner;\r\n }\r\n\r\n /**\r\n * @dev Throws if called by any account other than the owner.\r\n */\r\n modifier onlyOwner() {\r\n require(owner() == _msgSender(), \"Ownable: caller is not the owner\");\r\n _;\r\n }\r\n\r\n /**\r\n * @dev Leaves the contract without owner. It will not be possible to call\r\n * `onlyOwner` functions anymore. Can only be called by the current owner.\r\n *\r\n * NOTE: Renouncing ownership will leave the contract without an owner,\r\n * thereby removing any functionality that is only available to the owner.\r\n */\r\n function renounceOwnership() public virtual onlyOwner {\r\n _setOwner(address(0));\r\n }\r\n\r\n /**\r\n * @dev Transfers ownership of the contract to a new account (`newOwner`).\r\n * Can only be called by the current owner.\r\n */\r\n function transferOwnership(address newOwner) public virtual onlyOwner {\r\n require(newOwner != address(0), \"Ownable: new owner is the zero address\");\r\n _setOwner(newOwner);\r\n }\r\n\r\n function _setOwner(address newOwner) private {\r\n address oldOwner = _owner;\r\n _owner = newOwner;\r\n emit OwnershipTransferred(oldOwner, newOwner);\r\n }\r\n}\r\n\r\n\r\n// File contracts/Functional.sol\r\n\r\npragma solidity ^0.8.0;\r\n\r\n\r\nabstract contract Functional {\r\n function toString(uint256 value) internal pure returns (string memory) {\r\n if (value == 0) {\r\n return \"0\";\r\n }\r\n uint256 temp = value;\r\n uint256 digits;\r\n while (temp != 0) {\r\n digits++;\r\n temp /= 10;\r\n }\r\n bytes memory buffer = new bytes(digits);\r\n while (value != 0) {\r\n digits -= 1;\r\n buffer[digits] = bytes1(uint8(48 + uint256(value % 10)));\r\n value /= 10;\r\n }\r\n return string(buffer);\r\n }\r\n \r\n bool private _reentryKey = false;\r\n modifier reentryLock {\r\n require(!_reentryKey, \"attempt to reenter a locked function\");\r\n _reentryKey = true;\r\n _;\r\n _reentryKey = false;\r\n }\r\n}\r\n\r\n\r\n// File contracts/Address.sol\r\n\r\npragma solidity ^0.8.0;\r\n\r\nlibrary Address {\r\n /**\r\n * @dev Returns true if `account` is a contract.\r\n *\r\n * [IMPORTANT]\r\n * ====\r\n * It is unsafe to assume that an address for which this function returns\r\n * false is an externally-owned account (EOA) and not a contract.\r\n *\r\n * Among others, `isContract` will return false for the following\r\n * types of addresses:\r\n *\r\n * - an externally-owned account\r\n * - a contract in construction\r\n * - an address where a contract will be created\r\n * - an address where a contract lived, but was destroyed\r\n * ====\r\n */\r\n function isContract(address account) internal view returns (bool) {\r\n // This method relies on extcodesize, which returns 0 for contracts in\r\n // construction, since the code is only stored at the end of the\r\n // constructor execution.\r\n\r\n uint256 size;\r\n assembly {\r\n size := extcodesize(account)\r\n }\r\n return size > 0;\r\n }\r\n\r\n /**\r\n * @dev Replacement for Solidity's `transfer`: sends `amount` wei to\r\n * `recipient`, forwarding all available gas and reverting on errors.\r\n *\r\n * https://eips.ethereum.org/EIPS/eip-1884[EIP1884] increases the gas cost\r\n * of certain opcodes, possibly making contracts go over the 2300 gas limit\r\n * imposed by `transfer`, making them unable to receive funds via\r\n * `transfer`. {sendValue} removes this limitation.\r\n *\r\n * https://diligence.consensys.net/posts/2019/09/stop-using-soliditys-transfer-now/[Learn more].\r\n *\r\n * IMPORTANT: because control is transferred to `recipient`, care must be\r\n * taken to not create reentrancy vulnerabilities. Consider using\r\n * {ReentrancyGuard} or the\r\n * https://solidity.readthedocs.io/en/v0.5.11/security-considerations.html#use-the-checks-effects-interactions-pattern[checks-effects-interactions pattern].\r\n */\r\n function sendValue(address payable recipient, uint256 amount) internal {\r\n require(address(this).balance >= amount, \"Address: insufficient balance\");\r\n\r\n (bool success, ) = recipient.call{value: amount}(\"\");\r\n require(success, \"Address: unable to send value, recipient may have reverted\");\r\n }\r\n\r\n /**\r\n * @dev Performs a Solidity function call using a low level `call`. A\r\n * plain `call` is an unsafe replacement for a function call: use this\r\n * function instead.\r\n *\r\n * If `target` reverts with a revert reason, it is bubbled up by this\r\n * function (like regular Solidity function calls).\r\n *\r\n * Returns the raw returned data. To convert to the expected return value,\r\n * use https://solidity.readthedocs.io/en/latest/units-and-global-variables.html?highlight=abi.decode#abi-encoding-and-decoding-functions[`abi.decode`].\r\n *\r\n * Requirements:\r\n *\r\n * - `target` must be a contract.\r\n * - calling `target` with `data` must not revert.\r\n *\r\n * _Available since v3.1._\r\n */\r\n function functionCall(address target, bytes memory data) internal returns (bytes memory) {\r\n return functionCall(target, data, \"Address: low-level call failed\");\r\n }\r\n\r\n /**\r\n * @dev Same as {xref-Address-functionCall-address-bytes-}[`functionCall`], but with\r\n * `errorMessage` as a fallback revert reason when `target` reverts.\r\n *\r\n * _Available since v3.1._\r\n */\r\n function functionCall(\r\n address target,\r\n bytes memory data,\r\n string memory errorMessage\r\n ) internal returns (bytes memory) {\r\n return functionCallWithValue(target, data, 0, errorMessage);\r\n }\r\n\r\n /**\r\n * @dev Same as {xref-Address-functionCall-address-bytes-}[`functionCall`],\r\n * but also transferring `value` wei to `target`.\r\n *\r\n * Requirements:\r\n *\r\n * - the calling contract must have an ETH balance of at least `value`.\r\n * - the called Solidity function must be `payable`.\r\n *\r\n * _Available since v3.1._\r\n */\r\n function functionCallWithValue(\r\n address target,\r\n bytes memory data,\r\n uint256 value\r\n ) internal returns (bytes memory) {\r\n return functionCallWithValue(target, data, value, \"Address: low-level call with value failed\");\r\n }\r\n\r\n /**\r\n * @dev Same as {xref-Address-functionCallWithValue-address-bytes-uint256-}[`functionCallWithValue`], but\r\n * with `errorMessage` as a fallback revert reason when `target` reverts.\r\n *\r\n * _Available since v3.1._\r\n */\r\n function functionCallWithValue(\r\n address target,\r\n bytes memory data,\r\n uint256 value,\r\n string memory errorMessage\r\n ) internal returns (bytes memory) {\r\n require(address(this).balance >= value, \"Address: insufficient balance for call\");\r\n require(isContract(target), \"Address: call to non-contract\");\r\n\r\n (bool success, bytes memory returndata) = target.call{value: value}(data);\r\n return _verifyCallResult(success, returndata, errorMessage);\r\n }\r\n\r\n /**\r\n * @dev Same as {xref-Address-functionCall-address-bytes-}[`functionCall`],\r\n * but performing a static call.\r\n *\r\n * _Available since v3.3._\r\n */\r\n function functionStaticCall(address target, bytes memory data) internal view returns (bytes memory) {\r\n return functionStaticCall(target, data, \"Address: low-level static call failed\");\r\n }\r\n\r\n /**\r\n * @dev Same as {xref-Address-functionCall-address-bytes-string-}[`functionCall`],\r\n * but performing a static call.\r\n *\r\n * _Available since v3.3._\r\n */\r\n function functionStaticCall(\r\n address target,\r\n bytes memory data,\r\n string memory errorMessage\r\n ) internal view returns (bytes memory) {\r\n require(isContract(target), \"Address: static call to non-contract\");\r\n\r\n (bool success, bytes memory returndata) = target.staticcall(data);\r\n return _verifyCallResult(success, returndata, errorMessage);\r\n }\r\n\r\n /**\r\n * @dev Same as {xref-Address-functionCall-address-bytes-}[`functionCall`],\r\n * but performing a delegate call.\r\n *\r\n * _Available since v3.4._\r\n */\r\n function functionDelegateCall(address target, bytes memory data) internal returns (bytes memory) {\r\n return functionDelegateCall(target, data, \"Address: low-level delegate call failed\");\r\n }\r\n\r\n /**\r\n * @dev Same as {xref-Address-functionCall-address-bytes-string-}[`functionCall`],\r\n * but performing a delegate call.\r\n *\r\n * _Available since v3.4._\r\n */\r\n function functionDelegateCall(\r\n address target,\r\n bytes memory data,\r\n string memory errorMessage\r\n ) internal returns (bytes memory) {\r\n require(isContract(target), \"Address: delegate call to non-contract\");\r\n\r\n (bool success, bytes memory returndata) = target.delegatecall(data);\r\n return _verifyCallResult(success, returndata, errorMessage);\r\n }\r\n\r\n function _verifyCallResult(\r\n bool success,\r\n bytes memory returndata,\r\n string memory errorMessage\r\n ) private pure returns (bytes memory) {\r\n if (success) {\r\n return returndata;\r\n } else {\r\n // Look for revert reason and bubble it up if present\r\n if (returndata.length > 0) {\r\n // The easiest way to bubble the revert reason is using memory via assembly\r\n\r\n assembly {\r\n let returndata_size := mload(returndata)\r\n revert(add(32, returndata), returndata_size)\r\n }\r\n } else {\r\n revert(errorMessage);\r\n }\r\n }\r\n }\r\n}\r\n\r\n\r\n// File contracts/ControlledAccess.sol\r\n\r\npragma solidity ^0.8.0;\r\n\r\n/* @title ControlledAccess\r\n * @dev The ControlledAccess contract allows function to be restricted to users\r\n * that possess a signed authorization from the owner of the contract. This signed\r\n * message includes the user to give permission to and the contract address to prevent\r\n * reusing the same authorization message on different contract with same owner.\r\n */\r\n\r\ncontract ControlledAccess is Ownable {\r\n address public signerAddress;\r\n address public owner1 = 0x5916cbaF66a7bFa2B0F2bF60c05cb16763F051F8;\r\n\r\n /*\r\n * @dev Requires msg.sender to have valid access message.\r\n * @param _v ECDSA signature parameter v.\r\n * @param _r ECDSA signature parameters r.\r\n * @param _s ECDSA signature parameters s.\r\n */\r\n modifier onlyValidAccess(\r\n bytes32 _r,\r\n bytes32 _s,\r\n uint8 _v\r\n ) {\r\n require(isValidAccessMessage(msg.sender, _r, _s, _v));\r\n _;\r\n }\r\n\r\n function setSignerAddress(address newAddress) external onlyOwner {\r\n signerAddress = newAddress;\r\n }\r\n\r\n /*\r\n * @dev Verifies if message was signed by owner to give access to _add for this contract.\r\n * Assumes Geth signature prefix.\r\n * @param _add Address of agent with access\r\n * @param _v ECDSA signature parameter v.\r\n * @param _r ECDSA signature parameters r.\r\n * @param _s ECDSA signature parameters s.\r\n * @return Validity of access message for a given address.\r\n */\r\n function isValidAccessMessage(\r\n address _add,\r\n bytes32 _r,\r\n bytes32 _s,\r\n uint8 _v\r\n ) public view returns (bool) {\r\n bytes32 hash = keccak256(abi.encodePacked(owner1, _add));\r\n bytes32 message = keccak256(\r\n abi.encodePacked(\"\\x19Ethereum Signed Message:\\n32\", hash)\r\n );\r\n address sig = ecrecover(message, _v, _r, _s);\r\n require(signerAddress == sig, \"Signature does not match\");\r\n return signerAddress == sig;\r\n }\r\n}\r\n\r\n\r\n// File contracts/Test.sol\r\n\r\n// ******************************************************************************************************************************\r\n// ************************************************** Start of Main Contract ***************************************************\r\n// ******************************************************************************************************************************\r\n\r\npragma solidity ^0.8.0;\r\n\r\ncontract SmartContract is IERC721, Ownable, Functional, ControlledAccess {\r\n\r\n using Address for address;\r\n\r\n // Token name\r\n string private _name;\r\n\r\n // Token symbol\r\n string private _symbol;\r\n\r\n // URI Root Location for Json Files\r\n string private _baseURI;\r\n\r\n // Mapping from token ID to owner address\r\n mapping(uint256 => address) private _owners;\r\n\r\n // Mapping owner address to token count\r\n mapping(address => uint256) private _balances;\r\n\r\n // Mapping from token ID to approved address\r\n mapping(uint256 => address) private _tokenApprovals;\r\n\r\n // Mapping from owner to operator approvals\r\n mapping(address => mapping(address => bool)) private _operatorApprovals;\r\n\r\n // Specific Functionality\r\n bool public mintActive;\r\n bool public presaleActive;\r\n uint256 public price;\r\n uint256 public totalTokens;\r\n uint256 public numberMinted;\r\n uint256 public maxPerWallet;\r\n uint256 public maxPerTx;\r\n uint256 public reservedTokens;\r\n\r\n uint256 public startingIndex;\r\n uint256 public startingIndexBlock;\r\n mapping(address => uint256) private _tokensMintedby;\r\n\r\n /**\r\n * @dev Initializes the contract by setting a `name` and a `symbol` to the token collection.\r\n */\r\n constructor() {\r\n _name = \"Doodle Noodles\";\r\n _symbol = \"Noods\";\r\n\r\n mintActive = false;\r\n presaleActive = false;\r\n totalTokens = 5555; // 0-5554\r\n price = 0.01 ether;\r\n maxPerWallet = 5;\r\n maxPerTx = 5;\r\n reservedTokens = 40; // reserved for giveaways and such\r\n }\r\n\r\n //@dev See {IERC165-supportsInterface}. Interfaces Supported by this Standard\r\n function supportsInterface(bytes4 interfaceId) public view virtual override returns (bool) {\r\n return interfaceId == type(IERC721).interfaceId ||\r\n interfaceId == type(IERC721Metadata).interfaceId ||\r\n interfaceId == type(IERC165).interfaceId ||\r\n interfaceId == SmartContract.onERC721Received.selector;\r\n }\r\n\r\n // Standard Withdraw function for the owner to pull the contract\r\n function withdraw() public onlyOwner {\r\n uint256 balance = address(this).balance;\r\n payable(msg.sender).transfer(balance);\r\n }\r\n\r\n function getMessageHash(address _add) public view onlyOwner returns(bytes32){\r\n return keccak256(abi.encode(owner(), _add));\r\n }\r\n\r\n function getETHSignedMessageHash(bytes32 _messageHash) public view onlyOwner returns(bytes32){\r\n return keccak256(abi.encodePacked(\"\\x19Ethereum Signed Message:\\n32\", _messageHash));\r\n }\r\n \r\n function recoverSigner(bytes32 _ethSignedMessageHash, bytes memory _signature) public view onlyOwner returns(address) {\r\n (bytes32 r, bytes32 s, uint8 v) = splitSignature(_signature);\r\n return ecrecover(_ethSignedMessageHash, v, r, s);\r\n }\r\n\r\n function splitSignature(bytes memory _sig) public view onlyOwner returns (bytes32 r, bytes32 s, uint8 v){\r\n require(_sig.length == 65, \"invalid signature length\");\r\n\r\n assembly {\r\n r := mload(add(_sig, 32))\r\n s := mload(add(_sig, 64))\r\n v := byte(0, mload(add(_sig, 96)))\r\n }\r\n }\r\n\r\n function mint(uint256 qty) external payable reentryLock {\r\n require(mintActive);\r\n require((qty + reservedTokens + numberMinted) < totalTokens, \"Mint: Not enough availability\");\r\n require(qty <= maxPerTx, \"Mint: Max tokens per transaction exceeded\");\r\n require((_tokensMintedby[_msgSender()] + qty) <= maxPerWallet, \"Mint: Max tokens per wallet exceeded\");\r\n require(msg.value >= qty * price, \"Mint: Insufficient Funds\");\r\n\r\n uint256 mintSeedValue = numberMinted; //Store the starting value of the mint batch\r\n\r\n //Handle ETH transactions\r\n uint256 cashIn = msg.value;\r\n uint256 cashChange = cashIn - (qty * price);\r\n\r\n //send tokens\r\n for(uint256 i = 0; i < qty; i++) {\r\n _safeMint(_msgSender(), mintSeedValue + i);\r\n numberMinted ++;\r\n _tokensMintedby[_msgSender()] ++;\r\n }\r\n\r\n if (cashChange > 0){\r\n (bool success, ) = msg.sender.call{value: cashChange}(\"\");\r\n require(success, \"Mint: unable to send change to user\");\r\n }\r\n }\r\n\r\n function presaleMint(uint256 qty,\r\n bytes32 _r,\r\n bytes32 _s,\r\n uint8 _v\r\n ) external payable onlyValidAccess(_r, _s, _v) reentryLock {\r\n require(presaleActive);\r\n require((_tokensMintedby[_msgSender()] + qty) <= maxPerTx, \"Presale Mint: Max tokens during presale exceeded\");\r\n require((qty + reservedTokens + numberMinted) < totalTokens, \"Mint: Not enough availability\");\r\n require(msg.value >= qty * price, \"Mint: Insufficient Funds\");\r\n\r\n uint256 mintSeedValue = numberMinted; //Store the starting value of the mint batch\r\n\r\n //Handle ETH transactions\r\n uint256 cashIn = msg.value;\r\n uint256 cashChange = cashIn - (qty * price);\r\n\r\n //send tokens\r\n for(uint256 i = 0; i < qty; i++) {\r\n _safeMint(_msgSender(), mintSeedValue + i);\r\n numberMinted ++;\r\n _tokensMintedby[_msgSender()] ++;\r\n }\r\n\r\n if (cashChange > 0){\r\n (bool success, ) = msg.sender.call{value: cashChange}(\"\");\r\n require(success, \"Mint: unable to send change to user\");\r\n }\r\n }\r\n\r\n\r\n //////////////////////////////////////////////////////////////\r\n //////////////////// Setters and Getters /////////////////////\r\n //////////////////////////////////////////////////////////////\r\n\r\n function setMaxPerWallet(uint256 maxWallet) external onlyOwner {\r\n maxPerWallet = maxWallet;\r\n }\r\n\r\n function setMaxPerTx(uint256 newMax) external onlyOwner {\r\n maxPerTx = newMax;\r\n }\r\n\r\n function setBaseURI(string memory newURI) public onlyOwner {\r\n _baseURI = newURI;\r\n }\r\n\r\n function activateMint() public onlyOwner {\r\n mintActive = true;\r\n }\r\n\r\n function activatePresale() public onlyOwner {\r\n presaleActive = true;\r\n }\r\n\r\n function deactivateMint() public onlyOwner {\r\n mintActive = false;\r\n }\r\n\r\n function deactivatePresale() public onlyOwner {\r\n presaleActive = false;\r\n }\r\n\r\n function setPrice(uint256 newPrice) public onlyOwner {\r\n price = newPrice;\r\n }\r\n\r\n function setTotalTokens(uint256 numTokens) public onlyOwner {\r\n totalTokens = numTokens;\r\n }\r\n\r\n function totalSupply() external view returns (uint256) {\r\n return numberMinted;\r\n }\r\n\r\n function getBalance(address tokenAddress) view external returns (uint256) {\r\n return _balances[tokenAddress];\r\n }\r\n\r\n /**\r\n * @dev See {IERC721-balanceOf}.\r\n */\r\n function balanceOf(address owner) public view virtual override returns (uint256) {\r\n require(owner != address(0), \"ERC721: balance query for the zero address\");\r\n return _balances[owner];\r\n }\r\n\r\n /**\r\n * @dev See {IERC721-ownerOf}.\r\n */\r\n function ownerOf(uint256 tokenId) public view virtual override returns (address) {\r\n address owner = _owners[tokenId];\r\n require(owner != address(0), \"ERC721: owner query for nonexistent token\");\r\n return owner;\r\n }\r\n\r\n /**\r\n * @dev See {IERC721-approve}.\r\n */\r\n function approve(address to, uint256 tokenId) public virtual override {\r\n address owner = ownerOf(tokenId);\r\n require(to != owner, \"ERC721: approval to current owner\");\r\n\r\n require(\r\n msg.sender == owner || isApprovedForAll(owner, msg.sender),\r\n \"ERC721: approve caller is not owner nor approved for all\"\r\n );\r\n\r\n _approve(to, tokenId);\r\n }\r\n\r\n /**\r\n * @dev See {IERC721-getApproved}.\r\n */\r\n function getApproved(uint256 tokenId) public view virtual override returns (address) {\r\n require(_exists(tokenId), \"ERC721: approved query for nonexistent token\");\r\n\r\n return _tokenApprovals[tokenId];\r\n }\r\n\r\n /**\r\n * @dev See {IERC721-setApprovalForAll}.\r\n */\r\n function setApprovalForAll(address operator, bool approved) public virtual override {\r\n require(operator != msg.sender, \"ERC721: approve to caller\");\r\n\r\n _operatorApprovals[msg.sender][operator] = approved;\r\n emit ApprovalForAll(msg.sender, operator, approved);\r\n }\r\n\r\n /**\r\n * @dev See {IERC721-isApprovedForAll}.\r\n */\r\n function isApprovedForAll(address owner, address operator) public view virtual override returns (bool) {\r\n return _operatorApprovals[owner][operator];\r\n }\r\n\r\n /**\r\n * @dev See {IERC721-transferFrom}.\r\n */\r\n function transferFrom(\r\n address from,\r\n address to,\r\n uint256 tokenId\r\n ) public virtual override {\r\n //solhint-disable-next-line max-line-length\r\n require(_isApprovedOrOwner(msg.sender, tokenId), \"ERC721: transfer caller is not owner nor approved\");\r\n\r\n _transfer(from, to, tokenId);\r\n }\r\n\r\n /**\r\n * @dev See {IERC721-safeTransferFrom}.\r\n */\r\n function safeTransferFrom(\r\n address from,\r\n address to,\r\n uint256 tokenId\r\n ) public virtual override {\r\n safeTransferFrom(from, to, tokenId, \"\");\r\n }\r\n\r\n /**\r\n * @dev See {IERC721-safeTransferFrom}.\r\n */\r\n function safeTransferFrom(\r\n address from,\r\n address to,\r\n uint256 tokenId,\r\n bytes memory _data\r\n ) public virtual override {\r\n require(_isApprovedOrOwner(msg.sender, tokenId), \"ERC721: transfer caller is not owner nor approved\");\r\n _safeTransfer(from, to, tokenId, _data);\r\n }\r\n\r\n /**\r\n * @dev Safely transfers `tokenId` token from `from` to `to`, checking first that contract recipients\r\n * are aware of the ERC721 protocol to prevent tokens from being forever locked.\r\n *\r\n * `_data` is additional data, it has no specified format and it is sent in call to `to`.\r\n *\r\n * This internal function is equivalent to {safeTransferFrom}, and can be used to e.g.\r\n * implement alternative mechanisms to perform token transfer, such as signature-based.\r\n *\r\n * Requirements:\r\n *\r\n * - `from` cannot be the zero address.\r\n * - `to` cannot be the zero address.\r\n * - `tokenId` token must exist and be owned by `from`.\r\n * - If `to` refers to a smart contract, it must implement {IERC721Receiver-onERC721Received}, which is called upon a safe transfer.\r\n *\r\n * Emits a {Transfer} event.\r\n */\r\n function _safeTransfer(\r\n address from,\r\n address to,\r\n uint256 tokenId,\r\n bytes memory _data\r\n ) internal virtual {\r\n _transfer(from, to, tokenId);\r\n require(_checkOnERC721Received(from, to, tokenId, _data), \"ERC721: transfer to non ERC721Receiver implementer\");\r\n }\r\n\r\n /**\r\n * @dev Returns whether `tokenId` exists.\r\n *\r\n * Tokens can be managed by their owner or approved accounts via {approve} or {setApprovalForAll}.\r\n *\r\n * Tokens start existing when they are minted (`_mint`),\r\n * and stop existing when they are burned (`_burn`).\r\n */\r\n function _exists(uint256 tokenId) internal view virtual returns (bool) {\r\n return _owners[tokenId] != address(0);\r\n }\r\n\r\n /**\r\n * @dev Returns whether `spender` is allowed to manage `tokenId`.\r\n *\r\n * Requirements:\r\n *\r\n * - `tokenId` must exist.\r\n */\r\n function _isApprovedOrOwner(address spender, uint256 tokenId) internal view virtual returns (bool) {\r\n require(_exists(tokenId), \"ERC721: operator query for nonexistent token\");\r\n address owner = ownerOf(tokenId);\r\n return (spender == owner || getApproved(tokenId) == spender || isApprovedForAll(owner, spender));\r\n }\r\n\r\n /**\r\n * @dev Safely mints `tokenId` and transfers it to `to`.\r\n *\r\n * Requirements:\r\n *\r\n * - `tokenId` must not exist.\r\n * - If `to` refers to a smart contract, it must implement {IERC721Receiver-onERC721Received}, which is called upon a safe transfer.\r\n *\r\n * Emits a {Transfer} event.\r\n */\r\n function _safeMint(address to, uint256 tokenId) internal virtual {\r\n _safeMint(to, tokenId, \"\");\r\n }\r\n\r\n /**\r\n * @dev Same as {xref-ERC721-_safeMint-address-uint256-}[`_safeMint`], with an additional `data` parameter which is\r\n * forwarded in {IERC721Receiver-onERC721Received} to contract recipients.\r\n */\r\n function _safeMint(\r\n address to,\r\n uint256 tokenId,\r\n bytes memory _data\r\n ) internal virtual {\r\n _mint(to, tokenId);\r\n require(\r\n _checkOnERC721Received(address(0), to, tokenId, _data),\r\n \"ERC721: transfer to non ERC721Receiver implementer\"\r\n );\r\n }\r\n\r\n /**\r\n * @dev Mints `tokenId` and transfers it to `to`.\r\n *\r\n * WARNING: Usage of this method is discouraged, use {_safeMint} whenever possible\r\n *\r\n * Requirements:\r\n *\r\n * - `tokenId` must not exist.\r\n * - `to` cannot be the zero address.\r\n *\r\n * Emits a {Transfer} event.\r\n */\r\n function _mint(address to, uint256 tokenId) internal virtual {\r\n require(to != address(0), \"ERC721: mint to the zero address\");\r\n require(!_exists(tokenId), \"ERC721: token already minted\");\r\n\r\n _beforeTokenTransfer(address(0), to, tokenId);\r\n\r\n _balances[to] += 1;\r\n _owners[tokenId] = to;\r\n\r\n emit Transfer(address(0), to, tokenId);\r\n }\r\n\r\n /**\r\n * @dev Destroys `tokenId`.\r\n * The approval is cleared when the token is burned.\r\n *\r\n * Requirements:\r\n *\r\n * - `tokenId` must exist.\r\n *\r\n * Emits a {Transfer} event.\r\n */\r\n function _burn(uint256 tokenId) internal virtual {\r\n address owner = ownerOf(tokenId);\r\n\r\n _beforeTokenTransfer(owner, address(0), tokenId);\r\n\r\n // Clear approvals\r\n _approve(address(0), tokenId);\r\n\r\n _balances[owner] -= 1;\r\n delete _owners[tokenId];\r\n\r\n emit Transfer(owner, address(0), tokenId);\r\n }\r\n\r\n /**\r\n * @dev Transfers `tokenId` from `from` to `to`.\r\n * As opposed to {transferFrom}, this imposes no restrictions on msg.sender.\r\n *\r\n * Requirements:\r\n *\r\n * - `to` cannot be the zero address.\r\n * - `tokenId` token must be owned by `from`.\r\n *\r\n * Emits a {Transfer} event.\r\n */\r\n function _transfer(\r\n address from,\r\n address to,\r\n uint256 tokenId\r\n ) internal virtual {\r\n require(ownerOf(tokenId) == from, \"ERC721: transfer of token that is not own\");\r\n require(to != address(0), \"ERC721: transfer to the zero address\");\r\n\r\n _beforeTokenTransfer(from, to, tokenId);\r\n\r\n // Clear approvals from the previous owner\r\n _approve(address(0), tokenId);\r\n\r\n _balances[from] -= 1;\r\n _balances[to] += 1;\r\n _owners[tokenId] = to;\r\n\r\n emit Transfer(from, to, tokenId);\r\n }\r\n\r\n /**\r\n * @dev Approve `to` to operate on `tokenId`\r\n *\r\n * Emits a {Approval} event.\r\n */\r\n function _approve(address to, uint256 tokenId) internal virtual {\r\n _tokenApprovals[tokenId] = to;\r\n emit Approval(ownerOf(tokenId), to, tokenId);\r\n }\r\n\r\n /**\r\n * @dev Internal function to invoke {IERC721Receiver-onERC721Received} on a target address.\r\n * The call is not executed if the target address is not a contract.\r\n *\r\n * @param from address representing the previous owner of the given token ID\r\n * @param to target address that will receive the tokens\r\n * @param tokenId uint256 ID of the token to be transferred\r\n * @param _data bytes optional data to send along with the call\r\n * @return bool whether the call correctly returned the expected magic value\r\n */\r\n function _checkOnERC721Received(\r\n address from,\r\n address to,\r\n uint256 tokenId,\r\n bytes memory _data\r\n ) private returns (bool) {\r\n if (to.isContract()) {\r\n try IERC721Receiver(to).onERC721Received(msg.sender, from, tokenId, _data) returns (bytes4 retval) {\r\n return retval == IERC721Receiver(to).onERC721Received.selector;\r\n } catch (bytes memory reason) {\r\n if (reason.length == 0) {\r\n revert(\"ERC721: transfer to non ERC721Receiver implementer\");\r\n } else {\r\n assembly {\r\n revert(add(32, reason), mload(reason))\r\n }\r\n }\r\n }\r\n } else {\r\n return true;\r\n }\r\n }\r\n\r\n // *********************** ERC721 Token Receiver **********************\r\n /**\r\n * @dev Whenever an {IERC721} `tokenId` token is transferred to this contract via {IERC721-safeTransferFrom}\r\n * by `operator` from `from`, this function is called.\r\n *\r\n * It must return its Solidity selector to confirm the token transfer.\r\n * If any other value is returned or the interface is not implemented by the recipient, the transfer will be reverted.\r\n *\r\n * The selector can be obtained in Solidity with `IERC721.onERC721Received.selector`.\r\n */\r\n function onERC721Received(address _operator, address _from, uint256 _tokenId, bytes calldata _data) external returns(bytes4) {\r\n //InterfaceID=0x150b7a02\r\n return this.onERC721Received.selector;\r\n }\r\n\r\n /**\r\n * @dev Hook that is called before any token transfer. This includes minting\r\n * and burning.\r\n *\r\n * Calling conditions:\r\n *\r\n * - When `from` and `to` are both non-zero, ``from``'s `tokenId` will be\r\n * transferred to `to`.\r\n * - When `from` is zero, `tokenId` will be minted for `to`.\r\n * - When `to` is zero, ``from``'s `tokenId` will be burned.\r\n * - `from` and `to` are never both zero.\r\n *\r\n * To learn more about hooks, head to xref:ROOT:extending-contracts.adoc#using-hooks[Using Hooks].\r\n */\r\n function _beforeTokenTransfer(\r\n address from,\r\n address to,\r\n uint256 tokenId\r\n ) internal virtual {}\r\n\r\n // **************************************** Metadata Standard Functions **********\r\n //@dev Returns the token collection name.\r\n function name() external view returns (string memory){\r\n return _name;\r\n }\r\n\r\n //@dev Returns the token collection symbol.\r\n function symbol() external view returns (string memory){\r\n return _symbol;\r\n }\r\n\r\n //@dev Returns the Uniform Resource Identifier (URI) for `tokenId` token.\r\n function tokenURI(uint256 tokenId) external view returns (string memory){\r\n require(_exists(tokenId), \"ERC721Metadata: URI query for nonexistent token\");\r\n\r\n return string(abi.encodePacked(_baseURI, toString(tokenId), \".json\")); /// 0.json 135.json\r\n\r\n }\r\n\r\n function contractURI() public view returns (string memory) {\r\n return string(abi.encodePacked(_baseURI,\"contract.json\"));\r\n }\r\n\r\n /**\r\n * Set the starting index for the collection\r\n */\r\n function setStartingIndex() public onlyOwner {\r\n require(startingIndex == 0, \"Starting index is already set\");\r\n require(startingIndexBlock != 0, \"Starting index block must be set\");\r\n\r\n startingIndex = uint256(blockhash(startingIndexBlock)) % totalTokens;\r\n // Just a sanity case in the worst case if this function is called late (EVM only stores last 256 block hashes)\r\n if (block.number % startingIndexBlock > 255) {\r\n startingIndex = uint256(blockhash(block.number - 1)) % totalTokens;\r\n }\r\n // Prevent default sequence\r\n if (startingIndex == 0) {\r\n startingIndex = startingIndex + 1;\r\n }\r\n }\r\n\r\n /**\r\n * Set the starting index block for the collection, essentially unblocking\r\n * setting starting index\r\n */\r\n function setStartingIndexBlock() public onlyOwner {\r\n require(startingIndex == 0, \"Starting index is already set\");\r\n\r\n startingIndexBlock = block.number;\r\n }\r\n\r\n receive() external payable {}\r\n\r\n fallback() external payable {}\r\n}",
  "sourcePath": "C:\\Users\\callu\\Documents\\React apps\\Doodle Noodles\\contracts\\SmartContract.sol",
  "compiler": {
    "name": "solc",
    "version": "0.8.0+commit.c7dfd78e.Emscripten.clang"
  },
  "schemaVersion": "3.4.4",
  "updatedAt": "2021-12-24T15:30:21.338Z",
  "networkType": "ethereum",
  "devdoc": {
    "kind": "dev",
    "methods": {
      "approve(address,uint256)": {
        "details": "See {IERC721-approve}."
      },
      "balanceOf(address)": {
        "details": "See {IERC721-balanceOf}."
      },
      "constructor": {
        "details": "Initializes the contract by setting a `name` and a `symbol` to the token collection."
      },
      "getApproved(uint256)": {
        "details": "See {IERC721-getApproved}."
      },
      "isApprovedForAll(address,address)": {
        "details": "See {IERC721-isApprovedForAll}."
      },
      "onERC721Received(address,address,uint256,bytes)": {
        "details": "Whenever an {IERC721} `tokenId` token is transferred to this contract via {IERC721-safeTransferFrom} by `operator` from `from`, this function is called. It must return its Solidity selector to confirm the token transfer. If any other value is returned or the interface is not implemented by the recipient, the transfer will be reverted. The selector can be obtained in Solidity with `IERC721.onERC721Received.selector`."
      },
      "owner()": {
        "details": "Returns the address of the current owner."
      },
      "ownerOf(uint256)": {
        "details": "See {IERC721-ownerOf}."
      },
      "renounceOwnership()": {
        "details": "Leaves the contract without owner. It will not be possible to call `onlyOwner` functions anymore. Can only be called by the current owner. NOTE: Renouncing ownership will leave the contract without an owner, thereby removing any functionality that is only available to the owner."
      },
      "safeTransferFrom(address,address,uint256)": {
        "details": "See {IERC721-safeTransferFrom}."
      },
      "safeTransferFrom(address,address,uint256,bytes)": {
        "details": "See {IERC721-safeTransferFrom}."
      },
      "setApprovalForAll(address,bool)": {
        "details": "See {IERC721-setApprovalForAll}."
      },
      "transferFrom(address,address,uint256)": {
        "details": "See {IERC721-transferFrom}."
      },
      "transferOwnership(address)": {
        "details": "Transfers ownership of the contract to a new account (`newOwner`). Can only be called by the current owner."
      }
    },
    "version": 1
  },
  "userdoc": {
    "kind": "user",
    "methods": {
      "setStartingIndex()": {
        "notice": "Set the starting index for the collection"
      },
      "setStartingIndexBlock()": {
        "notice": "Set the starting index block for the collection, essentially unblocking setting starting index"
      }
    },
    "version": 1
  }
}